{
  "contractName": "ExtraFunctionalities",
  "abi": [
    {
      "inputs": [
        {
          "internalType": "address",
          "name": "_token",
          "type": "address"
        }
      ],
      "stateMutability": "payable",
      "type": "constructor",
      "payable": true
    },
    {
      "inputs": [],
      "name": "token",
      "outputs": [
        {
          "internalType": "address",
          "name": "",
          "type": "address"
        }
      ],
      "stateMutability": "view",
      "type": "function",
      "constant": true
    },
    {
      "inputs": [],
      "name": "get_balance",
      "outputs": [
        {
          "internalType": "uint256",
          "name": "",
          "type": "uint256"
        }
      ],
      "stateMutability": "view",
      "type": "function",
      "constant": true
    },
    {
      "inputs": [],
      "name": "withdraw",
      "outputs": [],
      "stateMutability": "nonpayable",
      "type": "function"
    },
    {
      "inputs": [
        {
          "internalType": "uint256",
          "name": "choice",
          "type": "uint256"
        }
      ],
      "name": "Get_NFYW",
      "outputs": [
        {
          "internalType": "string",
          "name": "",
          "type": "string"
        }
      ],
      "stateMutability": "payable",
      "type": "function",
      "payable": true
    },
    {
      "inputs": [],
      "name": "Get_proid",
      "outputs": [
        {
          "internalType": "string",
          "name": "",
          "type": "string"
        }
      ],
      "stateMutability": "view",
      "type": "function",
      "constant": true
    },
    {
      "inputs": [
        {
          "internalType": "string",
          "name": "product_id",
          "type": "string"
        }
      ],
      "name": "Redeem_NFYW",
      "outputs": [],
      "stateMutability": "payable",
      "type": "function",
      "payable": true
    },
    {
      "inputs": [
        {
          "internalType": "string",
          "name": "product_id",
          "type": "string"
        }
      ],
      "name": "RefundRequest",
      "outputs": [],
      "stateMutability": "payable",
      "type": "function",
      "payable": true
    },
    {
      "inputs": [
        {
          "internalType": "string",
          "name": "product_id",
          "type": "string"
        },
        {
          "internalType": "uint256",
          "name": "choice",
          "type": "uint256"
        }
      ],
      "name": "ExchangeProduct",
      "outputs": [],
      "stateMutability": "nonpayable",
      "type": "function"
    },
    {
      "inputs": [
        {
          "internalType": "string",
          "name": "_first_name",
          "type": "string"
        },
        {
          "internalType": "string",
          "name": "_last_name",
          "type": "string"
        }
      ],
      "name": "_register",
      "outputs": [],
      "stateMutability": "nonpayable",
      "type": "function"
    }
  ],
  "bytecode": "0x608060405260405162001ac238038062001ac28339818101604052810190620000299190620000c8565b806000806101000a81548173ffffffffffffffffffffffffffffffffffffffff021916908373ffffffffffffffffffffffffffffffffffffffff16021790555033600160006101000a81548173ffffffffffffffffffffffffffffffffffffffff021916908373ffffffffffffffffffffffffffffffffffffffff160217905550506200014d565b600081519050620000c28162000133565b92915050565b600060208284031215620000e157620000e06200012e565b5b6000620000f184828501620000b1565b91505092915050565b600062000107826200010e565b9050919050565b600073ffffffffffffffffffffffffffffffffffffffff82169050919050565b600080fd5b6200013e81620000fa565b81146200014a57600080fd5b50565b611965806200015d6000396000f3fe6080604052600436106100855760003560e01c80636c976cdc116100595780636c976cdc14610116578063a393e13e1461013f578063c1cfb99a1461015b578063e7ebb43e14610186578063fc0c546a146101b157610085565b80627c02751461008a57806302034abb146100b35780633ccfd60b146100e3578063665e58b6146100fa575b600080fd5b34801561009657600080fd5b506100b160048036038101906100ac91906113da565b6101dc565b005b6100cd60048036038101906100c891906114ae565b6102fc565b6040516100da91906115e5565b60405180910390f35b3480156100ef57600080fd5b506100f8610543565b005b610114600480360381019061010f9190611348565b6105f9565b005b34801561012257600080fd5b5061013d60048036038101906101389190611452565b610940565b005b61015960048036038101906101549190611348565b610d38565b005b34801561016757600080fd5b50610170611083565b60405161017d919061163e565b60405180910390f35b34801561019257600080fd5b5061019b6110e5565b6040516101a891906115e5565b60405180910390f35b3480156101bd57600080fd5b506101c6611196565b6040516101d391906115ca565b60405180910390f35b60008060009054906101000a900473ffffffffffffffffffffffffffffffffffffffff1690508073ffffffffffffffffffffffffffffffffffffffff1663966d18336040518163ffffffff1660e01b815260040160206040518083038186803b15801561024857600080fd5b505afa15801561025c573d6000803e3d6000fd5b505050506040513d601f19601f82011682018060405250810190610280919061131b565b1561028a57600080fd5b8073ffffffffffffffffffffffffffffffffffffffff16633ffbd47f84846040518363ffffffff1660e01b81526004016102c5929190611607565b600060405180830381600087803b1580156102df57600080fd5b505af11580156102f3573d6000803e3d6000fd5b50505050505050565b606060008060009054906101000a900473ffffffffffffffffffffffffffffffffffffffff1690508073ffffffffffffffffffffffffffffffffffffffff1663966d18336040518163ffffffff1660e01b815260040160206040518083038186803b15801561036a57600080fd5b505afa15801561037e573d6000803e3d6000fd5b505050506040513d601f19601f820116820180604052508101906103a2919061131b565b6103ab57600080fd5b60038311156103b957600080fd5b60018314156103dc57678ac7230489e800003410156103d757600080fd5b610422565b6002831415610400576801158e460913d000003410156103fb57600080fd5b610421565b6003831415610420576801a055690d9db8000034101561041f57600080fd5b5b5b5b60008060009054906101000a900473ffffffffffffffffffffffffffffffffffffffff1690508073ffffffffffffffffffffffffffffffffffffffff16631249c58b6040518163ffffffff1660e01b8152600401600060405180830381600087803b15801561049057600080fd5b505af11580156104a4573d6000803e3d6000fd5b505050508073ffffffffffffffffffffffffffffffffffffffff166313ba800085346040518363ffffffff1660e01b81526004016104e3929190611659565b600060405180830381600087803b1580156104fd57600080fd5b505af1158015610511573d6000803e3d6000fd5b505050506040513d6000823e3d601f19601f8201168201806040525081019061053a9190611391565b92505050919050565b600160009054906101000a900473ffffffffffffffffffffffffffffffffffffffff1673ffffffffffffffffffffffffffffffffffffffff163373ffffffffffffffffffffffffffffffffffffffff161461059d57600080fd5b3373ffffffffffffffffffffffffffffffffffffffff166108fc678ac7230489e80000476105cb91906116f4565b9081150290604051600060405180830381858888f193505050501580156105f6573d6000803e3d6000fd5b50565b60008060009054906101000a900473ffffffffffffffffffffffffffffffffffffffff1690508073ffffffffffffffffffffffffffffffffffffffff1663966d18336040518163ffffffff1660e01b815260040160206040518083038186803b15801561066557600080fd5b505afa158015610679573d6000803e3d6000fd5b505050506040513d601f19601f8201168201806040525081019061069d919061131b565b6106a657600080fd5b8160008060009054906101000a900473ffffffffffffffffffffffffffffffffffffffff1690508073ffffffffffffffffffffffffffffffffffffffff1663e8ca64f4836040518263ffffffff1660e01b815260040161070691906115e5565b60206040518083038186803b15801561071e57600080fd5b505afa158015610732573d6000803e3d6000fd5b505050506040513d601f19601f82011682018060405250810190610756919061131b565b61075f57600080fd5b8360008060009054906101000a900473ffffffffffffffffffffffffffffffffffffffff1690508073ffffffffffffffffffffffffffffffffffffffff1663dab1ab76836040518263ffffffff1660e01b81526004016107bf91906115e5565b602060405180830381600087803b1580156107d957600080fd5b505af11580156107ed573d6000803e3d6000fd5b505050506040513d601f19601f82011682018060405250810190610811919061131b565b61081a57600080fd5b60008060009054906101000a900473ffffffffffffffffffffffffffffffffffffffff1690508073ffffffffffffffffffffffffffffffffffffffff166395a2251f336040518263ffffffff1660e01b815260040161087991906115ca565b600060405180830381600087803b15801561089357600080fd5b505af11580156108a7573d6000803e3d6000fd5b505050508073ffffffffffffffffffffffffffffffffffffffff16638d994d6f886040518263ffffffff1660e01b81526004016108e491906115e5565b602060405180830381600087803b1580156108fe57600080fd5b505af1158015610912573d6000803e3d6000fd5b505050506040513d601f19601f8201168201806040525081019061093691906114db565b5050505050505050565b60008060009054906101000a900473ffffffffffffffffffffffffffffffffffffffff1690508073ffffffffffffffffffffffffffffffffffffffff1663966d18336040518163ffffffff1660e01b815260040160206040518083038186803b1580156109ac57600080fd5b505afa1580156109c0573d6000803e3d6000fd5b505050506040513d601f19601f820116820180604052508101906109e4919061131b565b6109ed57600080fd5b8260008060009054906101000a900473ffffffffffffffffffffffffffffffffffffffff1690508073ffffffffffffffffffffffffffffffffffffffff1663e8ca64f4836040518263ffffffff1660e01b8152600401610a4d91906115e5565b60206040518083038186803b158015610a6557600080fd5b505afa158015610a79573d6000803e3d6000fd5b505050506040513d601f19601f82011682018060405250810190610a9d919061131b565b610aa657600080fd5b8460008060009054906101000a900473ffffffffffffffffffffffffffffffffffffffff1690508073ffffffffffffffffffffffffffffffffffffffff16631e75f68c836040518263ffffffff1660e01b8152600401610b0691906115e5565b60206040518083038186803b158015610b1e57600080fd5b505afa158015610b32573d6000803e3d6000fd5b505050506040513d601f19601f82011682018060405250810190610b56919061131b565b610b5f57600080fd5b610b68876105f9565b60008060009054906101000a900473ffffffffffffffffffffffffffffffffffffffff16905060008173ffffffffffffffffffffffffffffffffffffffff16638d994d6f8a6040518263ffffffff1660e01b8152600401610bc991906115e5565b602060405180830381600087803b158015610be357600080fd5b505af1158015610bf7573d6000803e3d6000fd5b505050506040513d601f19601f82011682018060405250810190610c1b91906114db565b90506000610c29600a6111ba565b90506007811115610c3957600080fd5b8273ffffffffffffffffffffffffffffffffffffffff16631249c58b6040518163ffffffff1660e01b8152600401600060405180830381600087803b158015610c8157600080fd5b505af1158015610c95573d6000803e3d6000fd5b505050508273ffffffffffffffffffffffffffffffffffffffff166313ba80008a846040518363ffffffff1660e01b8152600401610cd4929190611659565b600060405180830381600087803b158015610cee57600080fd5b505af1158015610d02573d6000803e3d6000fd5b505050506040513d6000823e3d601f19601f82011682018060405250810190610d2b9190611391565b5050505050505050505050565b60008060009054906101000a900473ffffffffffffffffffffffffffffffffffffffff1690508073ffffffffffffffffffffffffffffffffffffffff1663966d18336040518163ffffffff1660e01b815260040160206040518083038186803b158015610da457600080fd5b505afa158015610db8573d6000803e3d6000fd5b505050506040513d601f19601f82011682018060405250810190610ddc919061131b565b610de557600080fd5b8160008060009054906101000a900473ffffffffffffffffffffffffffffffffffffffff1690508073ffffffffffffffffffffffffffffffffffffffff1663e8ca64f4836040518263ffffffff1660e01b8152600401610e4591906115e5565b60206040518083038186803b158015610e5d57600080fd5b505afa158015610e71573d6000803e3d6000fd5b505050506040513d601f19601f82011682018060405250810190610e95919061131b565b610e9e57600080fd5b8360008060009054906101000a900473ffffffffffffffffffffffffffffffffffffffff1690508073ffffffffffffffffffffffffffffffffffffffff16631e75f68c836040518263ffffffff1660e01b8152600401610efe91906115e5565b60206040518083038186803b158015610f1657600080fd5b505afa158015610f2a573d6000803e3d6000fd5b505050506040513d601f19601f82011682018060405250810190610f4e919061131b565b610f5757600080fd5b610f60866105f9565b60008060009054906101000a900473ffffffffffffffffffffffffffffffffffffffff16905060008173ffffffffffffffffffffffffffffffffffffffff16638d994d6f896040518263ffffffff1660e01b8152600401610fc191906115e5565b602060405180830381600087803b158015610fdb57600080fd5b505af1158015610fef573d6000803e3d6000fd5b505050506040513d601f19601f8201168201806040525081019061101391906114db565b90506000611021600a6111ba565b9050600781111561103157600080fd5b3373ffffffffffffffffffffffffffffffffffffffff166108fc839081150290604051600060405180830381858888f19350505050158015611077573d6000803e3d6000fd5b50505050505050505050565b6000600160009054906101000a900473ffffffffffffffffffffffffffffffffffffffff1673ffffffffffffffffffffffffffffffffffffffff163373ffffffffffffffffffffffffffffffffffffffff16146110df57600080fd5b47905090565b606060008060009054906101000a900473ffffffffffffffffffffffffffffffffffffffff1690508073ffffffffffffffffffffffffffffffffffffffff16639d929e786040518163ffffffff1660e01b815260040160006040518083038186803b15801561115357600080fd5b505afa158015611167573d6000803e3d6000fd5b505050506040513d6000823e3d601f19601f820116820180604052508101906111909190611391565b91505090565b60008054906101000a900473ffffffffffffffffffffffffffffffffffffffff1681565b6000814244336040516020016111d29392919061158d565b6040516020818303038152906040528051906020012060001c6111f59190611811565b9050919050565b600061120f61120a846116a7565b611682565b90508281526020810184848401111561122b5761122a6118d4565b5b611236848285611770565b509392505050565b600061125161124c846116a7565b611682565b90508281526020810184848401111561126d5761126c6118d4565b5b61127884828561177f565b509392505050565b60008151905061128f81611901565b92915050565b600082601f8301126112aa576112a96118cf565b5b81356112ba8482602086016111fc565b91505092915050565b600082601f8301126112d8576112d76118cf565b5b81516112e884826020860161123e565b91505092915050565b60008135905061130081611918565b92915050565b60008151905061131581611918565b92915050565b600060208284031215611331576113306118de565b5b600061133f84828501611280565b91505092915050565b60006020828403121561135e5761135d6118de565b5b600082013567ffffffffffffffff81111561137c5761137b6118d9565b5b61138884828501611295565b91505092915050565b6000602082840312156113a7576113a66118de565b5b600082015167ffffffffffffffff8111156113c5576113c46118d9565b5b6113d1848285016112c3565b91505092915050565b600080604083850312156113f1576113f06118de565b5b600083013567ffffffffffffffff81111561140f5761140e6118d9565b5b61141b85828601611295565b925050602083013567ffffffffffffffff81111561143c5761143b6118d9565b5b61144885828601611295565b9150509250929050565b60008060408385031215611469576114686118de565b5b600083013567ffffffffffffffff811115611487576114866118d9565b5b61149385828601611295565b92505060206114a4858286016112f1565b9150509250929050565b6000602082840312156114c4576114c36118de565b5b60006114d2848285016112f1565b91505092915050565b6000602082840312156114f1576114f06118de565b5b60006114ff84828501611306565b91505092915050565b61151181611728565b82525050565b61152861152382611728565b6117e3565b82525050565b6000611539826116d8565b61154381856116e3565b935061155381856020860161177f565b61155c816118e3565b840191505092915050565b61157081611766565b82525050565b61158761158282611766565b611807565b82525050565b60006115998286611576565b6020820191506115a98285611576565b6020820191506115b98284611517565b601482019150819050949350505050565b60006020820190506115df6000830184611508565b92915050565b600060208201905081810360008301526115ff818461152e565b905092915050565b60006040820190508181036000830152611621818561152e565b90508181036020830152611635818461152e565b90509392505050565b60006020820190506116536000830184611567565b92915050565b600060408201905061166e6000830185611567565b61167b6020830184611567565b9392505050565b600061168c61169d565b905061169882826117b2565b919050565b6000604051905090565b600067ffffffffffffffff8211156116c2576116c16118a0565b5b6116cb826118e3565b9050602081019050919050565b600081519050919050565b600082825260208201905092915050565b60006116ff82611766565b915061170a83611766565b92508282101561171d5761171c611842565b5b828203905092915050565b600061173382611746565b9050919050565b60008115159050919050565b600073ffffffffffffffffffffffffffffffffffffffff82169050919050565b6000819050919050565b82818337600083830152505050565b60005b8381101561179d578082015181840152602081019050611782565b838111156117ac576000848401525b50505050565b6117bb826118e3565b810181811067ffffffffffffffff821117156117da576117d96118a0565b5b80604052505050565b60006117ee826117f5565b9050919050565b6000611800826118f4565b9050919050565b6000819050919050565b600061181c82611766565b915061182783611766565b92508261183757611836611871565b5b828206905092915050565b7f4e487b7100000000000000000000000000000000000000000000000000000000600052601160045260246000fd5b7f4e487b7100000000000000000000000000000000000000000000000000000000600052601260045260246000fd5b7f4e487b7100000000000000000000000000000000000000000000000000000000600052604160045260246000fd5b600080fd5b600080fd5b600080fd5b600080fd5b6000601f19601f8301169050919050565b60008160601b9050919050565b61190a8161173a565b811461191557600080fd5b50565b61192181611766565b811461192c57600080fd5b5056fea2646970667358221220bfc06ed21bce4cdda16cf25d5d00d3ec78abe0a4f0b0ba86e0c027792949698564736f6c63430008060033",
  "immutableReferences": {},
  "source": "\r\n// SPDX-License-Identifier: MIT\r\npragma solidity >=0.4.22 <=0.8.6; \r\ncontract Token {\r\n\r\n   \r\n    address public owner; //address of the deployer of the smart contract\r\n    string public name;\r\n    string public symbol;\r\n    uint256 public decimals;\r\n    uint256 public totalSupply;\r\n    string productID;\r\n    uint lapindex;\r\n    uint phoneindex;\r\n    uint pcindex;\r\n    string res;\r\n    struct customer\r\n    {\r\n        address customeraddress;\r\n        bool reg;\r\n        uint num_of_products;\r\n        string first_name;\r\n        string last_name;\r\n        string[] products;\r\n        uint256[] time_of_purchase;\r\n        uint256[] pricepaid;\r\n        bool[] productwarranty;\r\n    }\r\n    enum productchoice {PHONE,LAPTOP,PC}\r\n    \r\n    mapping(address => customer) public customerdetails;\r\n    mapping(address => uint256) public balanceOf; // function to find the balance of each address\r\n    mapping(address => mapping(address => uint256)) public allowance;\r\n\r\n\r\n    // Events - fire events on state changes \r\n    event Transfer(address indexed from, address indexed to, uint256 value);\r\n\r\n    // constructor to be executed after the smart contract is deployed\r\n    constructor() public payable\r\n    {\r\n        name = \"WARRANTY\";\r\n        symbol = \"NFYW\";\r\n        decimals = 0;\r\n        totalSupply = 0; \r\n        balanceOf[msg.sender] = totalSupply;\r\n        owner = msg.sender;\r\n        lapindex = 0;\r\n        phoneindex =0;\r\n        pcindex = 0;\r\n    }\r\n    \r\n    function append(string memory a, string memory b) internal pure returns (string memory) \r\n    {\r\n    return string(abi.encodePacked(a, b));\r\n    }\r\n\r\n    function register(string memory _first_name, string memory _last_name)public \r\n    {   \r\n    require(customerdetails[tx.origin].reg==false);\r\n    customerdetails[tx.origin].reg=true;\r\n    customerdetails[tx.origin].first_name=_first_name;\r\n    customerdetails[tx.origin].last_name=_last_name;\r\n    customerdetails[tx.origin].num_of_products=0;\r\n    }\r\n\r\n\r\n    function choose(uint256 choice,uint amount) public payable returns(string memory)\r\n    {\r\n        require(customerdetails[tx.origin].reg==true);\r\n    if(choice == 1){\r\n    product_number(productchoice.PHONE);\r\n    }\r\n    else if(choice == 2)\r\n    {\r\n    product_number(productchoice.PC);\r\n    }\r\n    else if(choice == 3){\r\n    product_number(productchoice.LAPTOP);\r\n    }\r\n    customerdetails[tx.origin].products.push(productID);\r\n    customerdetails[tx.origin].time_of_purchase.push(block.timestamp);\r\n    customerdetails[tx.origin].num_of_products+=1;\r\n    customerdetails[tx.origin].pricepaid.push(amount);\r\n    customerdetails[tx.origin].productwarranty.push(true);\r\n    return productID;\r\n    \r\n    }\r\n\r\n  \r\n    function displayproductID() public view returns(string memory)\r\n    {\r\n    return customerdetails[tx.origin].products[0];\r\n    }\r\n    \r\n    \r\n    function product_number(productchoice pro) public returns(string memory)\r\n    {\r\n        productID = \"\";\r\n        \r\n        if(pro == productchoice.PHONE)\r\n            {\r\n                phoneindex+=1;\r\n                res= (uintToStr(phoneindex));\r\n                productID = append(\"p\",res);\r\n            }\r\n        if(pro == productchoice.LAPTOP)\r\n            {\r\n                lapindex+=1;\r\n                res = uintToStr(lapindex);\r\n                productID = append(\"l\",res);\r\n            \r\n            }\r\n        if(pro == productchoice.PC)\r\n            {\r\n                pcindex+=1;\r\n                res = uintToStr(pcindex);\r\n                productID = append(\"m\",res);\r\n            }\r\n        return string(productID);\r\n    }\r\n    \r\n    \r\n    function uintToStr(uint _i) internal pure returns (string memory _uintAsString) \r\n    {\r\n        if (_i == 0) {\r\n            return \"0\";\r\n        }\r\n        uint j = _i;\r\n        uint len;\r\n        while (j != 0) {\r\n            len++;\r\n            j /= 10;\r\n        }\r\n        bytes memory bstr = new bytes(len);\r\n        uint k = len;\r\n        while (_i != 0) {\r\n            k = k-1;\r\n            uint8 temp = (48 + uint8(_i - _i / 10 * 10));\r\n            bytes1 b1 = bytes1(temp);\r\n            bstr[k] = b1;\r\n            _i /= 10;\r\n        }\r\n        return string(bstr);\r\n    }\r\n\r\n    \r\n    \r\n    // calls _transfer funciton \r\n    function transfer(address _to, uint256 _value) payable external returns (bool success) \r\n    {\r\n        require(balanceOf[msg.sender] >= _value);\r\n        _transfer(msg.sender, _to, _value);\r\n        return true;\r\n    }\r\n\r\n\r\n    //transfers the Token from sender to receiver\r\n    function _transfer(address _from, address _to, uint256 _value) internal\r\n    {\r\n        // Ensure sending is to valid address! 0x0 address cane be used to burn() \r\n        require(_to != address(0));\r\n        balanceOf[_from] = balanceOf[_from] - (_value);\r\n        balanceOf[_to] = balanceOf[_to] + (_value);\r\n        emit Transfer(_from, _to, _value);\r\n    }\r\n\r\n\r\n    function transferFrom(address _from, address _to, uint256 _value) payable external returns (bool)\r\n    {\r\n        require(_value <= balanceOf[_from]);\r\n        require(_value <= allowance[_from][msg.sender]);\r\n        allowance[_from][msg.sender] = allowance[_from][msg.sender] - (_value);\r\n        _transfer(_from, _to, _value);\r\n        return true;\r\n    }\r\n    \r\n\r\n\r\n    //mints new tokens\r\n    function mint() public \r\n    {\r\n    balanceOf[tx.origin] += 1;\r\n    totalSupply++;\r\n    }\r\n    \r\n    function compareStrings(string memory a, string memory b) public pure returns (bool) \r\n    {\r\n    return (keccak256(abi.encodePacked((a))) == keccak256(abi.encodePacked((b))));\r\n    }\r\n\r\n    function removeWarranty(string memory pid) public returns(uint)\r\n    {\r\n        uint prop;\r\n        for (prop = 0; prop < customerdetails[tx.origin].num_of_products; prop ++)\r\n            if(compareStrings(customerdetails[tx.origin].products[prop],pid))\r\n            break;\r\n            customerdetails[tx.origin].productwarranty[prop]=false;\r\n            return customerdetails[tx.origin].pricepaid[prop];\r\n    }\r\n    \r\n    \r\n    \r\n    \r\n    \r\n    // product uses it warranty token\r\n    function redeem(address _from) public\r\n    {\r\n         require(balanceOf[tx.origin]>0);\r\n        _transfer(_from,owner, 1);\r\n    }\r\n    \r\n    function TokensInCirculation() public view returns(uint256 ActiveWarrantyCards)\r\n    {\r\n        ActiveWarrantyCards = totalSupply - balanceOf[owner];\r\n    }\r\n    \r\n    function RedeemedTokens()public view returns(uint256 Redeemedtokens)\r\n    {\r\n        Redeemedtokens = balanceOf[owner];\r\n    }\r\n    \r\n    function refund() public payable\r\n    {\r\n        require(balanceOf[tx.origin]>0);\r\n        _transfer(tx.origin,owner, 1);    \r\n        \r\n    }\r\n    \r\n    function status(string memory pid)public view returns(bool)\r\n    {\r\n        uint prop;\r\n        for (prop = 0; prop < customerdetails[tx.origin].num_of_products; prop ++)\r\n            if(compareStrings(customerdetails[tx.origin].products[prop],pid))\r\n                if(customerdetails[tx.origin].productwarranty[prop])\r\n                return true;\r\n                else\r\n                return false;\r\n    }\r\n    \r\n    function timerem(string memory pid)public returns(bool)\r\n    {\r\n        uint prop;\r\n        uint num_of_days;\r\n        for (prop = 0; prop < customerdetails[tx.origin].num_of_products; prop ++)\r\n            if(compareStrings(customerdetails[tx.origin].products[prop],pid))\r\n                num_of_days = (block.timestamp - customerdetails[tx.origin].time_of_purchase[prop])/60/60/24;\r\n        if(num_of_days<=365)\r\n        return true;\r\n        else\r\n        {\r\n            customerdetails[tx.origin].productwarranty[prop]=false;\r\n        return false;\r\n        }\r\n    }\r\n        function timeremforrefund(string memory pid)public view returns(bool)\r\n    {\r\n        uint prop;\r\n        uint num_of_days;\r\n        for (prop = 0; prop < customerdetails[tx.origin].num_of_products; prop ++)\r\n            if(compareStrings(customerdetails[tx.origin].products[prop],pid))\r\n                num_of_days = (block.timestamp - customerdetails[tx.origin].time_of_purchase[prop])/60/60/24;\r\n        if(num_of_days<=30)\r\n        return true;\r\n        else\r\n        return false;\r\n    }\r\n    \r\n    function checkreg()public view returns(bool)\r\n    {\r\n         if(customerdetails[tx.origin].reg)\r\n         return true;\r\n         else\r\n         return false;\r\n    }\r\n\r\n    function getUserProducts() public returns(string[] memory, bool[] memory, uint256[] memory) {\r\n        uint prop;\r\n        uint256[] memory expiry = new uint256[](customerdetails[tx.origin].num_of_products);\r\n        for (prop = 0; prop < customerdetails[tx.origin].num_of_products; prop ++)\r\n                expiry[prop] = 365-((block.timestamp - customerdetails[tx.origin].time_of_purchase[prop])/60/60/24);\r\n        return (customerdetails[tx.origin].products, customerdetails[tx.origin].productwarranty, expiry);\r\n    }\r\n\r\n    function returnpid() public view returns(string memory)\r\n    {\r\n        uint prop;\r\n        string memory temp;\r\n        for (prop=0 ;prop< (customerdetails[tx.origin].num_of_products) ; prop ++)\r\n        {\r\n            if(customerdetails[tx.origin].productwarranty[prop])\r\n            temp = customerdetails[tx.origin].products[prop];\r\n        }\r\n        return temp;\r\n    }\r\n   \r\n}\r\n\r\n\r\n\r\n\r\n\r\n\r\n\r\n\r\n\r\n\r\n\r\n\r\n\r\ncontract ExtraFunctionalities{\r\n    address public token;\r\n    address owner;\r\n\r\n    constructor(address _token) public payable\r\n    {\r\n        token = _token;\r\n        owner = msg.sender;\r\n    }\r\n    \r\n    modifier timeremaining(string memory product_id)\r\n    {\r\n        Token _token = Token(address(token));\r\n        require(_token.timerem(product_id));\r\n        _;\r\n    }\r\n    modifier timeremainingforrefund(string memory product_id)\r\n    {\r\n        Token _token = Token(address(token));\r\n        require(_token.timeremforrefund(product_id));\r\n        _;\r\n    }\r\n    \r\n    modifier checkforreg()\r\n    {\r\n        Token _token = Token(address(token));\r\n        require(_token.checkreg());\r\n        _;\r\n    }\r\n    \r\n    modifier warrantystatus(string memory product_id)\r\n    {\r\n        Token _token = Token(address(token));\r\n        require(_token.status(product_id));\r\n        _;\r\n    }\r\n    \r\n    function get_balance() public view returns(uint)\r\n    {\r\n        require(msg.sender == owner);\r\n     return address(this).balance;\r\n    }\r\n    function withdraw() public {\r\n        require(msg.sender == owner);\r\n        payable(msg.sender).transfer(address(this).balance-10 ether);\r\n    }\r\n\r\n    \r\n    function Get_NFYW(uint choice) public payable checkforreg() returns(string memory) \r\n    {\r\n        require(choice<=3);\r\n        if(choice == 1)\r\n          require(msg.value >=10 ether);\r\n        else if(choice == 2)\r\n        require(msg.value>=20 ether);\r\n        else if(choice == 3)\r\n        require(msg.value>=30 ether);\r\n        Token _token = Token(address(token));\r\n        _token.mint();\r\n        return _token.choose(choice,msg.value);\r\n    }\r\n    function Get_proid() public view returns(string memory)\r\n    {\r\n        Token _token = Token(address(token));\r\n        return _token.returnpid();\r\n    }\r\n    \r\n    function Redeem_NFYW(string memory product_id) public payable checkforreg() warrantystatus(product_id) timeremaining(product_id)\r\n    {\r\n        Token _token = Token(address(token));\r\n        _token.redeem(msg.sender);\r\n        _token.removeWarranty(product_id);\r\n    }\r\n\r\n    function _randModulus(uint mod) internal view returns(uint) \r\n    {\r\n        return uint(keccak256(abi.encodePacked(\r\n            block.timestamp, \r\n            block.difficulty, \r\n            msg.sender)\r\n        )) % mod;\r\n    \r\n    }\r\n    \r\n    function RefundRequest(string memory product_id) public payable checkforreg() warrantystatus(product_id) timeremainingforrefund(product_id)\r\n    {\r\n        Redeem_NFYW(product_id);\r\n        Token _token = Token(address(token));\r\n        uint price = _token.removeWarranty(product_id);\r\n        uint probability = _randModulus(10);\r\n        require(probability<=7);\r\n        payable(msg.sender).transfer(price);\r\n  \r\n    }\r\n    \r\n    \r\n    function ExchangeProduct(string memory product_id,uint choice) public checkforreg() warrantystatus(product_id) timeremainingforrefund(product_id)\r\n    {\r\n       Redeem_NFYW(product_id);\r\n       Token _token = Token(address(token));\r\n       uint price = _token.removeWarranty(product_id);\r\n       uint probability = _randModulus(10);\r\n       require(probability<=7);\r\n       _token.mint();\r\n       _token.choose(choice,price);\r\n    }\r\n    \r\n    \r\n    function _register(string memory _first_name, string memory _last_name)public \r\n    {   \r\n    Token _token = Token(address(token));\r\n    require(!_token.checkreg());\r\n    _token.register(_first_name,_last_name);\r\n    }\r\n}\r\n",
  "sourcePath": "D:\\LEARNING\\MASTERS\\SEM 1\\BLOCK CHAIN\\PROJECT\\PHASE 4\\CONTRACT\\contracts\\NFYW.sol",
  "compiler": {
    "name": "solc",
    "version": "0.8.6+commit.11564f7e.Emscripten.clang"
  },
  "schemaVersion": "3.4.3",
  "updatedAt": "2021-12-04T05:11:00.034Z",
  "networkType": "ethereum",
  "devdoc": {
    "kind": "dev",
    "methods": {},
    "version": 1
  },
  "userdoc": {
    "kind": "user",
    "methods": {},
    "version": 1
  }
}