{
  "contractName": "sample",
  "abi": [
    {
      "inputs": [],
      "stateMutability": "nonpayable",
      "type": "constructor"
    },
    {
      "inputs": [],
      "name": "count",
      "outputs": [
        {
          "internalType": "uint256",
          "name": "",
          "type": "uint256"
        }
      ],
      "stateMutability": "view",
      "type": "function"
    },
    {
      "inputs": [],
      "name": "get",
      "outputs": [
        {
          "internalType": "uint256",
          "name": "",
          "type": "uint256"
        }
      ],
      "stateMutability": "view",
      "type": "function"
    },
    {
      "inputs": [],
      "name": "inc",
      "outputs": [],
      "stateMutability": "nonpayable",
      "type": "function"
    },
    {
      "inputs": [],
      "name": "dec",
      "outputs": [],
      "stateMutability": "nonpayable",
      "type": "function"
    }
  ],
  "bytecode": "0x608060405234801561001057600080fd5b50600a600081905550610209806100286000396000f3fe608060405234801561001057600080fd5b506004361061004c5760003560e01c806306661abd14610051578063371303c01461006f5780636d4ce63c14610079578063b3bcfa8214610097575b600080fd5b6100596100a1565b60405161006691906100f5565b60405180910390f35b6100776100a7565b005b6100816100c2565b60405161008e91906100f5565b60405180910390f35b61009f6100cb565b005b60005481565b60016000808282546100b99190610110565b92505081905550565b60008054905090565b60016000808282546100dd9190610166565b92505081905550565b6100ef8161019a565b82525050565b600060208201905061010a60008301846100e6565b92915050565b600061011b8261019a565b91506101268361019a565b9250827fffffffffffffffffffffffffffffffffffffffffffffffffffffffffffffffff0382111561015b5761015a6101a4565b5b828201905092915050565b60006101718261019a565b915061017c8361019a565b92508282101561018f5761018e6101a4565b5b828203905092915050565b6000819050919050565b7f4e487b7100000000000000000000000000000000000000000000000000000000600052601160045260246000fdfea2646970667358221220f117b1e677a9ead9d046c83e7e4e4970d46937f44d0d2b22033ecd50a3426d2964736f6c63430008060033",
  "immutableReferences": {},
  "source": "pragma solidity >=0.4.22 <=0.8.6;\r\n\r\ncontract sample {\r\n    uint public count;\r\n    \r\n    constructor() public {\r\n        count = 10;\r\n    }\r\n\r\n    function get() public view returns (uint) {\r\n        return count;\r\n    }\r\n\r\n    function inc() public {\r\n        count += 1;\r\n    }\r\n\r\n    function dec() public {\r\n        count -= 1;\r\n    }\r\n}",
  "sourcePath": "D:\\LEARNING\\MASTERS\\SEM 1\\BLOCK CHAIN\\PROJECT\\PHASE 4\\CONTRACT\\contracts\\sample.sol",
  "compiler": {
    "name": "solc",
    "version": "0.8.6+commit.11564f7e.Emscripten.clang"
  },
  "schemaVersion": "3.4.3",
  "updatedAt": "2021-12-01T04:14:28.408Z",
  "devdoc": {
    "kind": "dev",
    "methods": {},
    "version": 1
  },
  "userdoc": {
    "kind": "user",
    "methods": {},
    "version": 1
  }
}