{
  "contractName": "Token",
  "abi": [
    {
      "inputs": [],
      "stateMutability": "payable",
      "type": "constructor",
      "payable": true
    },
    {
      "anonymous": false,
      "inputs": [
        {
          "indexed": true,
          "internalType": "address",
          "name": "from",
          "type": "address"
        },
        {
          "indexed": true,
          "internalType": "address",
          "name": "to",
          "type": "address"
        },
        {
          "indexed": false,
          "internalType": "uint256",
          "name": "value",
          "type": "uint256"
        }
      ],
      "name": "Transfer",
      "type": "event"
    },
    {
      "inputs": [
        {
          "internalType": "address",
          "name": "",
          "type": "address"
        },
        {
          "internalType": "address",
          "name": "",
          "type": "address"
        }
      ],
      "name": "allowance",
      "outputs": [
        {
          "internalType": "uint256",
          "name": "",
          "type": "uint256"
        }
      ],
      "stateMutability": "view",
      "type": "function",
      "constant": true
    },
    {
      "inputs": [
        {
          "internalType": "address",
          "name": "",
          "type": "address"
        }
      ],
      "name": "balanceOf",
      "outputs": [
        {
          "internalType": "uint256",
          "name": "",
          "type": "uint256"
        }
      ],
      "stateMutability": "view",
      "type": "function",
      "constant": true
    },
    {
      "inputs": [
        {
          "internalType": "address",
          "name": "",
          "type": "address"
        }
      ],
      "name": "customerdetails",
      "outputs": [
        {
          "internalType": "address",
          "name": "customeraddress",
          "type": "address"
        },
        {
          "internalType": "bool",
          "name": "reg",
          "type": "bool"
        },
        {
          "internalType": "uint256",
          "name": "num_of_products",
          "type": "uint256"
        },
        {
          "internalType": "string",
          "name": "first_name",
          "type": "string"
        },
        {
          "internalType": "string",
          "name": "last_name",
          "type": "string"
        }
      ],
      "stateMutability": "view",
      "type": "function",
      "constant": true
    },
    {
      "inputs": [],
      "name": "decimals",
      "outputs": [
        {
          "internalType": "uint256",
          "name": "",
          "type": "uint256"
        }
      ],
      "stateMutability": "view",
      "type": "function",
      "constant": true
    },
    {
      "inputs": [],
      "name": "name",
      "outputs": [
        {
          "internalType": "string",
          "name": "",
          "type": "string"
        }
      ],
      "stateMutability": "view",
      "type": "function",
      "constant": true
    },
    {
      "inputs": [],
      "name": "owner",
      "outputs": [
        {
          "internalType": "address",
          "name": "",
          "type": "address"
        }
      ],
      "stateMutability": "view",
      "type": "function",
      "constant": true
    },
    {
      "inputs": [],
      "name": "symbol",
      "outputs": [
        {
          "internalType": "string",
          "name": "",
          "type": "string"
        }
      ],
      "stateMutability": "view",
      "type": "function",
      "constant": true
    },
    {
      "inputs": [],
      "name": "totalSupply",
      "outputs": [
        {
          "internalType": "uint256",
          "name": "",
          "type": "uint256"
        }
      ],
      "stateMutability": "view",
      "type": "function",
      "constant": true
    },
    {
      "inputs": [
        {
          "internalType": "string",
          "name": "_first_name",
          "type": "string"
        },
        {
          "internalType": "string",
          "name": "_last_name",
          "type": "string"
        }
      ],
      "name": "register",
      "outputs": [],
      "stateMutability": "nonpayable",
      "type": "function"
    },
    {
      "inputs": [
        {
          "internalType": "uint256",
          "name": "choice",
          "type": "uint256"
        },
        {
          "internalType": "uint256",
          "name": "amount",
          "type": "uint256"
        }
      ],
      "name": "choose",
      "outputs": [
        {
          "internalType": "string",
          "name": "",
          "type": "string"
        }
      ],
      "stateMutability": "payable",
      "type": "function",
      "payable": true
    },
    {
      "inputs": [],
      "name": "displayproductID",
      "outputs": [
        {
          "internalType": "string",
          "name": "",
          "type": "string"
        }
      ],
      "stateMutability": "view",
      "type": "function",
      "constant": true
    },
    {
      "inputs": [
        {
          "internalType": "enum Token.productchoice",
          "name": "pro",
          "type": "uint8"
        }
      ],
      "name": "product_number",
      "outputs": [
        {
          "internalType": "string",
          "name": "",
          "type": "string"
        }
      ],
      "stateMutability": "nonpayable",
      "type": "function"
    },
    {
      "inputs": [
        {
          "internalType": "address",
          "name": "_to",
          "type": "address"
        },
        {
          "internalType": "uint256",
          "name": "_value",
          "type": "uint256"
        }
      ],
      "name": "transfer",
      "outputs": [
        {
          "internalType": "bool",
          "name": "success",
          "type": "bool"
        }
      ],
      "stateMutability": "payable",
      "type": "function",
      "payable": true
    },
    {
      "inputs": [
        {
          "internalType": "address",
          "name": "_from",
          "type": "address"
        },
        {
          "internalType": "address",
          "name": "_to",
          "type": "address"
        },
        {
          "internalType": "uint256",
          "name": "_value",
          "type": "uint256"
        }
      ],
      "name": "transferFrom",
      "outputs": [
        {
          "internalType": "bool",
          "name": "",
          "type": "bool"
        }
      ],
      "stateMutability": "payable",
      "type": "function",
      "payable": true
    },
    {
      "inputs": [],
      "name": "mint",
      "outputs": [],
      "stateMutability": "nonpayable",
      "type": "function"
    },
    {
      "inputs": [
        {
          "internalType": "string",
          "name": "a",
          "type": "string"
        },
        {
          "internalType": "string",
          "name": "b",
          "type": "string"
        }
      ],
      "name": "compareStrings",
      "outputs": [
        {
          "internalType": "bool",
          "name": "",
          "type": "bool"
        }
      ],
      "stateMutability": "pure",
      "type": "function",
      "constant": true
    },
    {
      "inputs": [
        {
          "internalType": "string",
          "name": "pid",
          "type": "string"
        }
      ],
      "name": "removeWarranty",
      "outputs": [
        {
          "internalType": "uint256",
          "name": "",
          "type": "uint256"
        }
      ],
      "stateMutability": "nonpayable",
      "type": "function"
    },
    {
      "inputs": [
        {
          "internalType": "address",
          "name": "_from",
          "type": "address"
        }
      ],
      "name": "redeem",
      "outputs": [],
      "stateMutability": "nonpayable",
      "type": "function"
    },
    {
      "inputs": [],
      "name": "TokensInCirculation",
      "outputs": [
        {
          "internalType": "uint256",
          "name": "ActiveWarrantyCards",
          "type": "uint256"
        }
      ],
      "stateMutability": "view",
      "type": "function",
      "constant": true
    },
    {
      "inputs": [],
      "name": "RedeemedTokens",
      "outputs": [
        {
          "internalType": "uint256",
          "name": "Redeemedtokens",
          "type": "uint256"
        }
      ],
      "stateMutability": "view",
      "type": "function",
      "constant": true
    },
    {
      "inputs": [],
      "name": "refund",
      "outputs": [],
      "stateMutability": "payable",
      "type": "function",
      "payable": true
    },
    {
      "inputs": [
        {
          "internalType": "string",
          "name": "pid",
          "type": "string"
        }
      ],
      "name": "status",
      "outputs": [
        {
          "internalType": "bool",
          "name": "",
          "type": "bool"
        }
      ],
      "stateMutability": "view",
      "type": "function",
      "constant": true
    },
    {
      "inputs": [
        {
          "internalType": "string",
          "name": "pid",
          "type": "string"
        }
      ],
      "name": "timerem",
      "outputs": [
        {
          "internalType": "bool",
          "name": "",
          "type": "bool"
        }
      ],
      "stateMutability": "nonpayable",
      "type": "function"
    },
    {
      "inputs": [
        {
          "internalType": "string",
          "name": "pid",
          "type": "string"
        }
      ],
      "name": "timeremforrefund",
      "outputs": [
        {
          "internalType": "bool",
          "name": "",
          "type": "bool"
        }
      ],
      "stateMutability": "view",
      "type": "function",
      "constant": true
    },
    {
      "inputs": [],
      "name": "checkreg",
      "outputs": [
        {
          "internalType": "bool",
          "name": "",
          "type": "bool"
        }
      ],
      "stateMutability": "view",
      "type": "function",
      "constant": true
    },
    {
      "inputs": [],
      "name": "getUserProducts",
      "outputs": [
        {
          "internalType": "string[]",
          "name": "",
          "type": "string[]"
        },
        {
          "internalType": "bool[]",
          "name": "",
          "type": "bool[]"
        },
        {
          "internalType": "uint256[]",
          "name": "",
          "type": "uint256[]"
        }
      ],
      "stateMutability": "nonpayable",
      "type": "function"
    },
    {
      "inputs": [],
      "name": "returnpid",
      "outputs": [
        {
          "internalType": "string",
          "name": "",
          "type": "string"
        }
      ],
      "stateMutability": "view",
      "type": "function",
      "constant": true
    }
  ],
  "bytecode": "0x60806040526040518060400160405280600881526020017f57415252414e5459000000000000000000000000000000000000000000000000815250600190805190602001906200005192919062000154565b506040518060400160405280600481526020017f4e46595700000000000000000000000000000000000000000000000000000000815250600290805190602001906200009f92919062000154565b5060006003819055506000600481905550600454600b60003373ffffffffffffffffffffffffffffffffffffffff1673ffffffffffffffffffffffffffffffffffffffff16815260200190815260200160002081905550336000806101000a81548173ffffffffffffffffffffffffffffffffffffffff021916908373ffffffffffffffffffffffffffffffffffffffff16021790555060006006819055506000600781905550600060088190555062000269565b828054620001629062000204565b90600052602060002090601f016020900481019282620001865760008555620001d2565b82601f10620001a157805160ff1916838001178555620001d2565b82800160010185558215620001d2579182015b82811115620001d1578251825591602001919060010190620001b4565b5b509050620001e19190620001e5565b5090565b5b8082111562000200576000816000905550600101620001e6565b5090565b600060028204905060018216806200021d57607f821691505b602082108114156200023457620002336200023a565b5b50919050565b7f4e487b7100000000000000000000000000000000000000000000000000000000600052602260045260246000fd5b61388680620002796000396000f3fe60806040526004361061019c5760003560e01c80638d994d6f116100ec578063a9059cbb1161008a578063dab1ab7611610064578063dab1ab76146105b4578063dd62ed3e146105f1578063e4bed4d41461062e578063e8ca64f41461066b5761019c565b8063a9059cbb1461051a578063aba7b3141461054a578063bed34bba146105775761019c565b806395d89b41116100c657806395d89b411461046e578063966d18331461049957806397bd68e9146104c45780639d929e78146104ef5761019c565b80638d994d6f146103dd5780638da5cb5b1461041a57806395a2251f146104455761019c565b80632819e85e116101595780633ffbd47f116101335780633ffbd47f1461034257806341ff7b5a1461036b578063590e1ae31461039657806370a08231146103a05761019c565b80632819e85e146102ab57806328f3e92a146102ec578063313ce567146103175761019c565b806306fdde03146101a15780631249c58b146101cc57806313ba8000146101e357806318160ddd146102135780631e75f68c1461023e57806323b872dd1461027b575b600080fd5b3480156101ad57600080fd5b506101b66106a8565b6040516101c391906132ce565b60405180910390f35b3480156101d857600080fd5b506101e1610736565b005b6101fd60048036038101906101f89190612f0d565b6107a7565b60405161020a91906132ce565b60405180910390f35b34801561021f57600080fd5b50610228610b17565b60405161023591906132f0565b60405180910390f35b34801561024a57600080fd5b5061026560048036038101906102609190612e4c565b610b1d565b60405161027291906132b3565b60405180910390f35b61029560048036038101906102909190612d8c565b610d27565b6040516102a291906132b3565b60405180910390f35b3480156102b757600080fd5b506102d260048036038101906102cd9190612d1f565b610f1c565b6040516102e3959493929190613206565b60405180910390f35b3480156102f857600080fd5b5061030161108f565b60405161030e91906132f0565b60405180910390f35b34801561032357600080fd5b5061032c6110f7565b60405161033991906132f0565b60405180910390f35b34801561034e57600080fd5b5061036960048036038101906103649190612e95565b6110fd565b005b34801561037757600080fd5b506103806112b2565b60405161038d91906132ce565b60405180910390f35b61039e6113a1565b005b3480156103ac57600080fd5b506103c760048036038101906103c29190612d1f565b61141b565b6040516103d491906132f0565b60405180910390f35b3480156103e957600080fd5b5061040460048036038101906103ff9190612e4c565b611433565b60405161041191906132f0565b60405180910390f35b34801561042657600080fd5b5061042f611678565b60405161043c91906131eb565b60405180910390f35b34801561045157600080fd5b5061046c60048036038101906104679190612d1f565b61169c565b005b34801561047a57600080fd5b50610483611717565b60405161049091906132ce565b60405180910390f35b3480156104a557600080fd5b506104ae6117a5565b6040516104bb91906132b3565b60405180910390f35b3480156104d057600080fd5b506104d961180d565b6040516104e691906132f0565b60405180910390f35b3480156104fb57600080fd5b50610504611882565b60405161051191906132ce565b60405180910390f35b610534600480360381019061052f9190612ddf565b611a55565b60405161054191906132b3565b60405180910390f35b34801561055657600080fd5b5061055f611ab8565b60405161056e93929190613267565b60405180910390f35b34801561058357600080fd5b5061059e60048036038101906105999190612e95565b611e44565b6040516105ab91906132b3565b60405180910390f35b3480156105c057600080fd5b506105db60048036038101906105d69190612e4c565b611e9d565b6040516105e891906132b3565b60405180910390f35b3480156105fd57600080fd5b5061061860048036038101906106139190612d4c565b612127565b60405161062591906132f0565b60405180910390f35b34801561063a57600080fd5b5061065560048036038101906106509190612e1f565b61214c565b60405161066291906132ce565b60405180910390f35b34801561067757600080fd5b50610692600480360381019061068d9190612e4c565b6125dd565b60405161069f91906132b3565b60405180910390f35b600180546106b590613627565b80601f01602080910402602001604051908101604052809291908181526020018280546106e190613627565b801561072e5780601f106107035761010080835404028352916020019161072e565b820191906000526020600020905b81548152906001019060200180831161071157829003601f168201915b505050505081565b6001600b60003273ffffffffffffffffffffffffffffffffffffffff1673ffffffffffffffffffffffffffffffffffffffff16815260200190815260200160002060008282546107869190613444565b92505081905550600460008154809291906107a09061368a565b9190505550565b606060011515600a60003273ffffffffffffffffffffffffffffffffffffffff1673ffffffffffffffffffffffffffffffffffffffff16815260200190815260200160002060000160149054906101000a900460ff1615151461080957600080fd5b60018314156108225761081c600061214c565b50610852565b600283141561083b57610835600261214c565b50610851565b60038314156108505761084e600161214c565b505b5b5b600a60003273ffffffffffffffffffffffffffffffffffffffff1673ffffffffffffffffffffffffffffffffffffffff1681526020019081526020016000206004016005908060018154018082558091505060019003906000526020600020016000909190919091509080546108c790613627565b6108d2929190612b40565b50600a60003273ffffffffffffffffffffffffffffffffffffffff1673ffffffffffffffffffffffffffffffffffffffff1681526020019081526020016000206005014290806001815401808255809150506001900390600052602060002001600090919091909150556001600a60003273ffffffffffffffffffffffffffffffffffffffff1673ffffffffffffffffffffffffffffffffffffffff168152602001908152602001600020600101600082825461098f9190613444565b92505081905550600a60003273ffffffffffffffffffffffffffffffffffffffff1673ffffffffffffffffffffffffffffffffffffffff168152602001908152602001600020600601829080600181540180825580915050600190039060005260206000200160009091909190915055600a60003273ffffffffffffffffffffffffffffffffffffffff1673ffffffffffffffffffffffffffffffffffffffff168152602001908152602001600020600701600190806001815401808255809150506001900390600052602060002090602091828204019190069091909190916101000a81548160ff02191690831515021790555060058054610a9190613627565b80601f0160208091040260200160405190810160405280929190818152602001828054610abd90613627565b8015610b0a5780601f10610adf57610100808354040283529160200191610b0a565b820191906000526020600020905b815481529060010190602001808311610aed57829003601f168201915b5050505050905092915050565b60045481565b60008060008091505b600a60003273ffffffffffffffffffffffffffffffffffffffff1673ffffffffffffffffffffffffffffffffffffffff16815260200190815260200160002060010154821015610d0857610c60600a60003273ffffffffffffffffffffffffffffffffffffffff1673ffffffffffffffffffffffffffffffffffffffff1681526020019081526020016000206004018381548110610bc757610bc661378f565b5b906000526020600020018054610bdc90613627565b80601f0160208091040260200160405190810160405280929190818152602001828054610c0890613627565b8015610c555780601f10610c2a57610100808354040283529160200191610c55565b820191906000526020600020905b815481529060010190602001808311610c3857829003601f168201915b505050505085611e44565b15610cf5576018603c80600a60003273ffffffffffffffffffffffffffffffffffffffff1673ffffffffffffffffffffffffffffffffffffffff1681526020019081526020016000206005018581548110610cbe57610cbd61378f565b5b906000526020600020015442610cd4919061355c565b610cde91906134d1565b610ce891906134d1565b610cf291906134d1565b90505b8180610d009061368a565b925050610b26565b601e8111610d1b57600192505050610d22565b6000925050505b919050565b6000600b60008573ffffffffffffffffffffffffffffffffffffffff1673ffffffffffffffffffffffffffffffffffffffff16815260200190815260200160002054821115610d7557600080fd5b600c60008573ffffffffffffffffffffffffffffffffffffffff1673ffffffffffffffffffffffffffffffffffffffff16815260200190815260200160002060003373ffffffffffffffffffffffffffffffffffffffff1673ffffffffffffffffffffffffffffffffffffffff16815260200190815260200160002054821115610dfe57600080fd5b81600c60008673ffffffffffffffffffffffffffffffffffffffff1673ffffffffffffffffffffffffffffffffffffffff16815260200190815260200160002060003373ffffffffffffffffffffffffffffffffffffffff1673ffffffffffffffffffffffffffffffffffffffff16815260200190815260200160002054610e86919061355c565b600c60008673ffffffffffffffffffffffffffffffffffffffff1673ffffffffffffffffffffffffffffffffffffffff16815260200190815260200160002060003373ffffffffffffffffffffffffffffffffffffffff1673ffffffffffffffffffffffffffffffffffffffff16815260200190815260200160002081905550610f118484846127cb565b600190509392505050565b600a6020528060005260406000206000915090508060000160009054906101000a900473ffffffffffffffffffffffffffffffffffffffff16908060000160149054906101000a900460ff1690806001015490806002018054610f7e90613627565b80601f0160208091040260200160405190810160405280929190818152602001828054610faa90613627565b8015610ff75780601f10610fcc57610100808354040283529160200191610ff7565b820191906000526020600020905b815481529060010190602001808311610fda57829003601f168201915b50505050509080600301805461100c90613627565b80601f016020809104026020016040519081016040528092919081815260200182805461103890613627565b80156110855780601f1061105a57610100808354040283529160200191611085565b820191906000526020600020905b81548152906001019060200180831161106857829003601f168201915b5050505050905085565b6000600b60008060009054906101000a900473ffffffffffffffffffffffffffffffffffffffff1673ffffffffffffffffffffffffffffffffffffffff1673ffffffffffffffffffffffffffffffffffffffff16815260200190815260200160002054905090565b60035481565b60001515600a60003273ffffffffffffffffffffffffffffffffffffffff1673ffffffffffffffffffffffffffffffffffffffff16815260200190815260200160002060000160149054906101000a900460ff1615151461115d57600080fd5b6001600a60003273ffffffffffffffffffffffffffffffffffffffff1673ffffffffffffffffffffffffffffffffffffffff16815260200190815260200160002060000160146101000a81548160ff02191690831515021790555081600a60003273ffffffffffffffffffffffffffffffffffffffff1673ffffffffffffffffffffffffffffffffffffffff168152602001908152602001600020600201908051906020019061120e929190612bcd565b5080600a60003273ffffffffffffffffffffffffffffffffffffffff1673ffffffffffffffffffffffffffffffffffffffff1681526020019081526020016000206003019080519060200190611265929190612bcd565b506000600a60003273ffffffffffffffffffffffffffffffffffffffff1673ffffffffffffffffffffffffffffffffffffffff168152602001908152602001600020600101819055505050565b6060600a60003273ffffffffffffffffffffffffffffffffffffffff1673ffffffffffffffffffffffffffffffffffffffff1681526020019081526020016000206004016000815481106113095761130861378f565b5b90600052602060002001805461131e90613627565b80601f016020809104026020016040519081016040528092919081815260200182805461134a90613627565b80156113975780601f1061136c57610100808354040283529160200191611397565b820191906000526020600020905b81548152906001019060200180831161137a57829003601f168201915b5050505050905090565b6000600b60003273ffffffffffffffffffffffffffffffffffffffff1673ffffffffffffffffffffffffffffffffffffffff16815260200190815260200160002054116113ed57600080fd5b6114193260008054906101000a900473ffffffffffffffffffffffffffffffffffffffff1660016127cb565b565b600b6020528060005260406000206000915090505481565b600080600090505b600a60003273ffffffffffffffffffffffffffffffffffffffff1673ffffffffffffffffffffffffffffffffffffffff1681526020019081526020016000206001015481101561159257611575600a60003273ffffffffffffffffffffffffffffffffffffffff1673ffffffffffffffffffffffffffffffffffffffff16815260200190815260200160002060040182815481106114dc576114db61378f565b5b9060005260206000200180546114f190613627565b80601f016020809104026020016040519081016040528092919081815260200182805461151d90613627565b801561156a5780601f1061153f5761010080835404028352916020019161156a565b820191906000526020600020905b81548152906001019060200180831161154d57829003601f168201915b505050505084611e44565b1561157f57611592565b808061158a9061368a565b91505061143b565b6000600a60003273ffffffffffffffffffffffffffffffffffffffff1673ffffffffffffffffffffffffffffffffffffffff16815260200190815260200160002060070182815481106115e8576115e761378f565b5b90600052602060002090602091828204019190066101000a81548160ff021916908315150217905550600a60003273ffffffffffffffffffffffffffffffffffffffff1673ffffffffffffffffffffffffffffffffffffffff16815260200190815260200160002060060181815481106116655761166461378f565b5b9060005260206000200154915050919050565b60008054906101000a900473ffffffffffffffffffffffffffffffffffffffff1681565b6000600b60003273ffffffffffffffffffffffffffffffffffffffff1673ffffffffffffffffffffffffffffffffffffffff16815260200190815260200160002054116116e857600080fd5b6117148160008054906101000a900473ffffffffffffffffffffffffffffffffffffffff1660016127cb565b50565b6002805461172490613627565b80601f016020809104026020016040519081016040528092919081815260200182805461175090613627565b801561179d5780601f106117725761010080835404028352916020019161179d565b820191906000526020600020905b81548152906001019060200180831161178057829003601f168201915b505050505081565b6000600a60003273ffffffffffffffffffffffffffffffffffffffff1673ffffffffffffffffffffffffffffffffffffffff16815260200190815260200160002060000160149054906101000a900460ff1615611805576001905061180a565b600090505b90565b6000600b60008060009054906101000a900473ffffffffffffffffffffffffffffffffffffffff1673ffffffffffffffffffffffffffffffffffffffff1673ffffffffffffffffffffffffffffffffffffffff1681526020019081526020016000205460045461187d919061355c565b905090565b606060006060600091505b600a60003273ffffffffffffffffffffffffffffffffffffffff1673ffffffffffffffffffffffffffffffffffffffff16815260200190815260200160002060010154821015611a4d57600a60003273ffffffffffffffffffffffffffffffffffffffff1673ffffffffffffffffffffffffffffffffffffffff168152602001908152602001600020600701828154811061192b5761192a61378f565b5b90600052602060002090602091828204019190069054906101000a900460ff1615611a3a57600a60003273ffffffffffffffffffffffffffffffffffffffff1673ffffffffffffffffffffffffffffffffffffffff16815260200190815260200160002060040182815481106119a4576119a361378f565b5b9060005260206000200180546119b990613627565b80601f01602080910402602001604051908101604052809291908181526020018280546119e590613627565b8015611a325780601f10611a0757610100808354040283529160200191611a32565b820191906000526020600020905b815481529060010190602001808311611a1557829003601f168201915b505050505090505b8180611a459061368a565b92505061188d565b809250505090565b600081600b60003373ffffffffffffffffffffffffffffffffffffffff1673ffffffffffffffffffffffffffffffffffffffff168152602001908152602001600020541015611aa357600080fd5b611aae3384846127cb565b6001905092915050565b6060806060600080600a60003273ffffffffffffffffffffffffffffffffffffffff1673ffffffffffffffffffffffffffffffffffffffff1681526020019081526020016000206001015467ffffffffffffffff811115611b1c57611b1b6137be565b5b604051908082528060200260200182016040528015611b4a5781602001602082028036833780820191505090505b509050600091505b600a60003273ffffffffffffffffffffffffffffffffffffffff1673ffffffffffffffffffffffffffffffffffffffff16815260200190815260200160002060010154821015611c68576018603c80600a60003273ffffffffffffffffffffffffffffffffffffffff1673ffffffffffffffffffffffffffffffffffffffff1681526020019081526020016000206005018581548110611bf557611bf461378f565b5b906000526020600020015442611c0b919061355c565b611c1591906134d1565b611c1f91906134d1565b611c2991906134d1565b61016d611c36919061355c565b818381518110611c4957611c4861378f565b5b6020026020010181815250508180611c609061368a565b925050611b52565b600a60003273ffffffffffffffffffffffffffffffffffffffff1673ffffffffffffffffffffffffffffffffffffffff168152602001908152602001600020600401600a60003273ffffffffffffffffffffffffffffffffffffffff1673ffffffffffffffffffffffffffffffffffffffff1681526020019081526020016000206007018282805480602002602001604051908101604052809291908181526020016000905b82821015611dba578382906000526020600020018054611d2d90613627565b80601f0160208091040260200160405190810160405280929190818152602001828054611d5990613627565b8015611da65780601f10611d7b57610100808354040283529160200191611da6565b820191906000526020600020905b815481529060010190602001808311611d8957829003601f168201915b505050505081526020019060010190611d0e565b50505050925081805480602002602001604051908101604052809291908181526020018280548015611e3057602002820191906000526020600020906000905b82829054906101000a900460ff16151581526020019060010190602082600001049283019260010382029150808411611dfa5790505b505050505091509450945094505050909192565b600081604051602001611e5791906131b0565b6040516020818303038152906040528051906020012083604051602001611e7e91906131b0565b6040516020818303038152906040528051906020012014905092915050565b60008060008091505b600a60003273ffffffffffffffffffffffffffffffffffffffff1673ffffffffffffffffffffffffffffffffffffffff1681526020019081526020016000206001015482101561208857611fe0600a60003273ffffffffffffffffffffffffffffffffffffffff1673ffffffffffffffffffffffffffffffffffffffff1681526020019081526020016000206004018381548110611f4757611f4661378f565b5b906000526020600020018054611f5c90613627565b80601f0160208091040260200160405190810160405280929190818152602001828054611f8890613627565b8015611fd55780601f10611faa57610100808354040283529160200191611fd5565b820191906000526020600020905b815481529060010190602001808311611fb857829003601f168201915b505050505085611e44565b15612075576018603c80600a60003273ffffffffffffffffffffffffffffffffffffffff1673ffffffffffffffffffffffffffffffffffffffff168152602001908152602001600020600501858154811061203e5761203d61378f565b5b906000526020600020015442612054919061355c565b61205e91906134d1565b61206891906134d1565b61207291906134d1565b90505b81806120809061368a565b925050611ea6565b61016d811161209c57600192505050612122565b6000600a60003273ffffffffffffffffffffffffffffffffffffffff1673ffffffffffffffffffffffffffffffffffffffff16815260200190815260200160002060070183815481106120f2576120f161378f565b5b90600052602060002090602091828204019190066101000a81548160ff0219169083151502179055506000925050505b919050565b600c602052816000526040600020602052806000526040600020600091509150505481565b60606040518060200160405280600081525060059080519060200190612173929190612bcd565b506000600281111561218857612187613731565b5b82600281111561219b5761219a613731565b5b14156122bc576001600760008282546121b49190613444565b925050819055506121c660075461298b565b600990805190602001906121db929190612bcd565b506122a56040518060400160405280600181526020017f70000000000000000000000000000000000000000000000000000000000000008152506009805461222290613627565b80601f016020809104026020016040519081016040528092919081815260200182805461224e90613627565b801561229b5780601f106122705761010080835404028352916020019161229b565b820191906000526020600020905b81548152906001019060200180831161227e57829003601f168201915b5050505050612b14565b600590805190602001906122ba929190612bcd565b505b600160028111156122d0576122cf613731565b5b8260028111156122e3576122e2613731565b5b1415612404576001600660008282546122fc9190613444565b9250508190555061230e60065461298b565b60099080519060200190612323929190612bcd565b506123ed6040518060400160405280600181526020017f6c000000000000000000000000000000000000000000000000000000000000008152506009805461236a90613627565b80601f016020809104026020016040519081016040528092919081815260200182805461239690613627565b80156123e35780601f106123b8576101008083540402835291602001916123e3565b820191906000526020600020905b8154815290600101906020018083116123c657829003601f168201915b5050505050612b14565b60059080519060200190612402929190612bcd565b505b60028081111561241757612416613731565b5b82600281111561242a57612429613731565b5b141561254b576001600860008282546124439190613444565b9250508190555061245560085461298b565b6009908051906020019061246a929190612bcd565b506125346040518060400160405280600181526020017f6d00000000000000000000000000000000000000000000000000000000000000815250600980546124b190613627565b80601f01602080910402602001604051908101604052809291908181526020018280546124dd90613627565b801561252a5780601f106124ff5761010080835404028352916020019161252a565b820191906000526020600020905b81548152906001019060200180831161250d57829003601f168201915b5050505050612b14565b60059080519060200190612549929190612bcd565b505b6005805461255890613627565b80601f016020809104026020016040519081016040528092919081815260200182805461258490613627565b80156125d15780601f106125a6576101008083540402835291602001916125d1565b820191906000526020600020905b8154815290600101906020018083116125b457829003601f168201915b50505050509050919050565b600080600090505b600a60003273ffffffffffffffffffffffffffffffffffffffff1673ffffffffffffffffffffffffffffffffffffffff168152602001908152602001600020600101548110156127c45761271f600a60003273ffffffffffffffffffffffffffffffffffffffff1673ffffffffffffffffffffffffffffffffffffffff16815260200190815260200160002060040182815481106126865761268561378f565b5b90600052602060002001805461269b90613627565b80601f01602080910402602001604051908101604052809291908181526020018280546126c790613627565b80156127145780601f106126e957610100808354040283529160200191612714565b820191906000526020600020905b8154815290600101906020018083116126f757829003601f168201915b505050505084611e44565b156127b157600a60003273ffffffffffffffffffffffffffffffffffffffff1673ffffffffffffffffffffffffffffffffffffffff16815260200190815260200160002060070181815481106127785761277761378f565b5b90600052602060002090602091828204019190069054906101000a900460ff16156127a75760019150506127c6565b60009150506127c6565b80806127bc9061368a565b9150506125e5565b505b919050565b600073ffffffffffffffffffffffffffffffffffffffff168273ffffffffffffffffffffffffffffffffffffffff16141561280557600080fd5b80600b60008573ffffffffffffffffffffffffffffffffffffffff1673ffffffffffffffffffffffffffffffffffffffff16815260200190815260200160002054612850919061355c565b600b60008573ffffffffffffffffffffffffffffffffffffffff1673ffffffffffffffffffffffffffffffffffffffff1681526020019081526020016000208190555080600b60008473ffffffffffffffffffffffffffffffffffffffff1673ffffffffffffffffffffffffffffffffffffffff168152602001908152602001600020546128de9190613444565b600b60008473ffffffffffffffffffffffffffffffffffffffff1673ffffffffffffffffffffffffffffffffffffffff168152602001908152602001600020819055508173ffffffffffffffffffffffffffffffffffffffff168373ffffffffffffffffffffffffffffffffffffffff167fddf252ad1be2c89b69c2b068fc378daa952ba7f163c4a11628f55a4df523b3ef8360405161297e91906132f0565b60405180910390a3505050565b606060008214156129d3576040518060400160405280600181526020017f30000000000000000000000000000000000000000000000000000000000000008152509050612b0f565b600082905060005b60008214612a055780806129ee9061368a565b915050600a826129fe91906134d1565b91506129db565b60008167ffffffffffffffff811115612a2157612a206137be565b5b6040519080825280601f01601f191660200182016040528015612a535781602001600182028036833780820191505090505b50905060008290505b60008614612b0757600181612a71919061355c565b90506000600a8088612a8391906134d1565b612a8d9190613502565b87612a98919061355c565b6030612aa4919061349a565b905060008160f81b905080848481518110612ac257612ac161378f565b5b60200101907effffffffffffffffffffffffffffffffffffffffffffffffffffffffffffff1916908160001a905350600a88612afe91906134d1565b97505050612a5c565b819450505050505b919050565b60608282604051602001612b299291906131c7565b604051602081830303815290604052905092915050565b828054612b4c90613627565b90600052602060002090601f016020900481019282612b6e5760008555612bbc565b82601f10612b7f5780548555612bbc565b82800160010185558215612bbc57600052602060002091601f016020900482015b82811115612bbb578254825591600101919060010190612ba0565b5b509050612bc99190612c53565b5090565b828054612bd990613627565b90600052602060002090601f016020900481019282612bfb5760008555612c42565b82601f10612c1457805160ff1916838001178555612c42565b82800160010185558215612c42579182015b82811115612c41578251825591602001919060010190612c26565b5b509050612c4f9190612c53565b5090565b5b80821115612c6c576000816000905550600101612c54565b5090565b6000612c83612c7e84613330565b61330b565b905082815260208101848484011115612c9f57612c9e6137f2565b5b612caa8482856135e5565b509392505050565b600081359050612cc181613812565b92915050565b600081359050612cd681613829565b92915050565b600082601f830112612cf157612cf06137ed565b5b8135612d01848260208601612c70565b91505092915050565b600081359050612d1981613839565b92915050565b600060208284031215612d3557612d346137fc565b5b6000612d4384828501612cb2565b91505092915050565b60008060408385031215612d6357612d626137fc565b5b6000612d7185828601612cb2565b9250506020612d8285828601612cb2565b9150509250929050565b600080600060608486031215612da557612da46137fc565b5b6000612db386828701612cb2565b9350506020612dc486828701612cb2565b9250506040612dd586828701612d0a565b9150509250925092565b60008060408385031215612df657612df56137fc565b5b6000612e0485828601612cb2565b9250506020612e1585828601612d0a565b9150509250929050565b600060208284031215612e3557612e346137fc565b5b6000612e4384828501612cc7565b91505092915050565b600060208284031215612e6257612e616137fc565b5b600082013567ffffffffffffffff811115612e8057612e7f6137f7565b5b612e8c84828501612cdc565b91505092915050565b60008060408385031215612eac57612eab6137fc565b5b600083013567ffffffffffffffff811115612eca57612ec96137f7565b5b612ed685828601612cdc565b925050602083013567ffffffffffffffff811115612ef757612ef66137f7565b5b612f0385828601612cdc565b9150509250929050565b60008060408385031215612f2457612f236137fc565b5b6000612f3285828601612d0a565b9250506020612f4385828601612d0a565b9150509250929050565b6000612f5983836130d1565b60208301905092915050565b6000612f7183836130ef565b905092915050565b6000612f858383613192565b60208301905092915050565b612f9a81613590565b82525050565b6000612fab82613391565b612fb581856133e4565b9350612fc083613361565b8060005b83811015612ff1578151612fd88882612f4d565b9750612fe3836133bd565b925050600181019050612fc4565b5085935050505092915050565b60006130098261339c565b61301381856133f5565b93508360208202850161302585613371565b8060005b8581101561306157848403895281516130428582612f65565b945061304d836133ca565b925060208a01995050600181019050613029565b50829750879550505050505092915050565b600061307e826133a7565b6130888185613406565b935061309383613381565b8060005b838110156130c45781516130ab8882612f79565b97506130b6836133d7565b925050600181019050613097565b5085935050505092915050565b6130da816135a2565b82525050565b6130e9816135a2565b82525050565b60006130fa826133b2565b6131048185613417565b93506131148185602086016135f4565b61311d81613801565b840191505092915050565b6000613133826133b2565b61313d8185613428565b935061314d8185602086016135f4565b61315681613801565b840191505092915050565b600061316c826133b2565b6131768185613439565b93506131868185602086016135f4565b80840191505092915050565b61319b816135ce565b82525050565b6131aa816135ce565b82525050565b60006131bc8284613161565b915081905092915050565b60006131d38285613161565b91506131df8284613161565b91508190509392505050565b60006020820190506132006000830184612f91565b92915050565b600060a08201905061321b6000830188612f91565b61322860208301876130e0565b61323560408301866131a1565b81810360608301526132478185613128565b9050818103608083015261325b8184613128565b90509695505050505050565b600060608201905081810360008301526132818186612ffe565b905081810360208301526132958185612fa0565b905081810360408301526132a98184613073565b9050949350505050565b60006020820190506132c860008301846130e0565b92915050565b600060208201905081810360008301526132e88184613128565b905092915050565b600060208201905061330560008301846131a1565b92915050565b6000613315613326565b90506133218282613659565b919050565b6000604051905090565b600067ffffffffffffffff82111561334b5761334a6137be565b5b61335482613801565b9050602081019050919050565b6000819050602082019050919050565b6000819050602082019050919050565b6000819050602082019050919050565b600081519050919050565b600081519050919050565b600081519050919050565b600081519050919050565b6000602082019050919050565b6000602082019050919050565b6000602082019050919050565b600082825260208201905092915050565b600082825260208201905092915050565b600082825260208201905092915050565b600082825260208201905092915050565b600082825260208201905092915050565b600081905092915050565b600061344f826135ce565b915061345a836135ce565b9250827fffffffffffffffffffffffffffffffffffffffffffffffffffffffffffffffff0382111561348f5761348e6136d3565b5b828201905092915050565b60006134a5826135d8565b91506134b0836135d8565b92508260ff038211156134c6576134c56136d3565b5b828201905092915050565b60006134dc826135ce565b91506134e7836135ce565b9250826134f7576134f6613702565b5b828204905092915050565b600061350d826135ce565b9150613518836135ce565b9250817fffffffffffffffffffffffffffffffffffffffffffffffffffffffffffffffff0483118215151615613551576135506136d3565b5b828202905092915050565b6000613567826135ce565b9150613572836135ce565b925082821015613585576135846136d3565b5b828203905092915050565b600061359b826135ae565b9050919050565b60008115159050919050565b600073ffffffffffffffffffffffffffffffffffffffff82169050919050565b6000819050919050565b600060ff82169050919050565b82818337600083830152505050565b60005b838110156136125780820151818401526020810190506135f7565b83811115613621576000848401525b50505050565b6000600282049050600182168061363f57607f821691505b6020821081141561365357613652613760565b5b50919050565b61366282613801565b810181811067ffffffffffffffff82111715613681576136806137be565b5b80604052505050565b6000613695826135ce565b91507fffffffffffffffffffffffffffffffffffffffffffffffffffffffffffffffff8214156136c8576136c76136d3565b5b600182019050919050565b7f4e487b7100000000000000000000000000000000000000000000000000000000600052601160045260246000fd5b7f4e487b7100000000000000000000000000000000000000000000000000000000600052601260045260246000fd5b7f4e487b7100000000000000000000000000000000000000000000000000000000600052602160045260246000fd5b7f4e487b7100000000000000000000000000000000000000000000000000000000600052602260045260246000fd5b7f4e487b7100000000000000000000000000000000000000000000000000000000600052603260045260246000fd5b7f4e487b7100000000000000000000000000000000000000000000000000000000600052604160045260246000fd5b600080fd5b600080fd5b600080fd5b600080fd5b6000601f19601f8301169050919050565b61381b81613590565b811461382657600080fd5b50565b6003811061383657600080fd5b50565b613842816135ce565b811461384d57600080fd5b5056fea2646970667358221220a7031454f4e9d8b8fe343df14fefde34c90c201f607d448dec15eeda720b6e1864736f6c63430008060033",
  "immutableReferences": {},
  "source": "\r\n// SPDX-License-Identifier: MIT\r\npragma solidity >=0.4.22 <=0.8.6; \r\ncontract Token {\r\n\r\n   \r\n    address public owner; //address of the deployer of the smart contract\r\n    string public name;\r\n    string public symbol;\r\n    uint256 public decimals;\r\n    uint256 public totalSupply;\r\n    string productID;\r\n    uint lapindex;\r\n    uint phoneindex;\r\n    uint pcindex;\r\n    string res;\r\n    struct customer\r\n    {\r\n        address customeraddress;\r\n        bool reg;\r\n        uint num_of_products;\r\n        string first_name;\r\n        string last_name;\r\n        string[] products;\r\n        uint256[] time_of_purchase;\r\n        uint256[] pricepaid;\r\n        bool[] productwarranty;\r\n    }\r\n    enum productchoice {PHONE,LAPTOP,PC}\r\n    \r\n    mapping(address => customer) public customerdetails;\r\n    mapping(address => uint256) public balanceOf; // function to find the balance of each address\r\n    mapping(address => mapping(address => uint256)) public allowance;\r\n\r\n\r\n    // Events - fire events on state changes \r\n    event Transfer(address indexed from, address indexed to, uint256 value);\r\n\r\n    // constructor to be executed after the smart contract is deployed\r\n    constructor() public payable\r\n    {\r\n        name = \"WARRANTY\";\r\n        symbol = \"NFYW\";\r\n        decimals = 0;\r\n        totalSupply = 0; \r\n        balanceOf[msg.sender] = totalSupply;\r\n        owner = msg.sender;\r\n        lapindex = 0;\r\n        phoneindex =0;\r\n        pcindex = 0;\r\n    }\r\n    \r\n    function append(string memory a, string memory b) internal pure returns (string memory) \r\n    {\r\n    return string(abi.encodePacked(a, b));\r\n    }\r\n\r\n    function register(string memory _first_name, string memory _last_name)public \r\n    {   \r\n    require(customerdetails[tx.origin].reg==false);\r\n    customerdetails[tx.origin].reg=true;\r\n    customerdetails[tx.origin].first_name=_first_name;\r\n    customerdetails[tx.origin].last_name=_last_name;\r\n    customerdetails[tx.origin].num_of_products=0;\r\n    }\r\n\r\n\r\n    function choose(uint256 choice,uint amount) public payable returns(string memory)\r\n    {\r\n        require(customerdetails[tx.origin].reg==true);\r\n    if(choice == 1){\r\n    product_number(productchoice.PHONE);\r\n    }\r\n    else if(choice == 2)\r\n    {\r\n    product_number(productchoice.PC);\r\n    }\r\n    else if(choice == 3){\r\n    product_number(productchoice.LAPTOP);\r\n    }\r\n    customerdetails[tx.origin].products.push(productID);\r\n    customerdetails[tx.origin].time_of_purchase.push(block.timestamp);\r\n    customerdetails[tx.origin].num_of_products+=1;\r\n    customerdetails[tx.origin].pricepaid.push(amount);\r\n    customerdetails[tx.origin].productwarranty.push(true);\r\n    return productID;\r\n    \r\n    }\r\n\r\n  \r\n    function displayproductID() public view returns(string memory)\r\n    {\r\n    return customerdetails[tx.origin].products[0];\r\n    }\r\n    \r\n    \r\n    function product_number(productchoice pro) public returns(string memory)\r\n    {\r\n        productID = \"\";\r\n        \r\n        if(pro == productchoice.PHONE)\r\n            {\r\n                phoneindex+=1;\r\n                res= (uintToStr(phoneindex));\r\n                productID = append(\"p\",res);\r\n            }\r\n        if(pro == productchoice.LAPTOP)\r\n            {\r\n                lapindex+=1;\r\n                res = uintToStr(lapindex);\r\n                productID = append(\"l\",res);\r\n            \r\n            }\r\n        if(pro == productchoice.PC)\r\n            {\r\n                pcindex+=1;\r\n                res = uintToStr(pcindex);\r\n                productID = append(\"m\",res);\r\n            }\r\n        return string(productID);\r\n    }\r\n    \r\n    \r\n    function uintToStr(uint _i) internal pure returns (string memory _uintAsString) \r\n    {\r\n        if (_i == 0) {\r\n            return \"0\";\r\n        }\r\n        uint j = _i;\r\n        uint len;\r\n        while (j != 0) {\r\n            len++;\r\n            j /= 10;\r\n        }\r\n        bytes memory bstr = new bytes(len);\r\n        uint k = len;\r\n        while (_i != 0) {\r\n            k = k-1;\r\n            uint8 temp = (48 + uint8(_i - _i / 10 * 10));\r\n            bytes1 b1 = bytes1(temp);\r\n            bstr[k] = b1;\r\n            _i /= 10;\r\n        }\r\n        return string(bstr);\r\n    }\r\n\r\n    \r\n    \r\n    // calls _transfer funciton \r\n    function transfer(address _to, uint256 _value) payable external returns (bool success) \r\n    {\r\n        require(balanceOf[msg.sender] >= _value);\r\n        _transfer(msg.sender, _to, _value);\r\n        return true;\r\n    }\r\n\r\n\r\n    //transfers the Token from sender to receiver\r\n    function _transfer(address _from, address _to, uint256 _value) internal\r\n    {\r\n        // Ensure sending is to valid address! 0x0 address cane be used to burn() \r\n        require(_to != address(0));\r\n        balanceOf[_from] = balanceOf[_from] - (_value);\r\n        balanceOf[_to] = balanceOf[_to] + (_value);\r\n        emit Transfer(_from, _to, _value);\r\n    }\r\n\r\n\r\n    function transferFrom(address _from, address _to, uint256 _value) payable external returns (bool)\r\n    {\r\n        require(_value <= balanceOf[_from]);\r\n        require(_value <= allowance[_from][msg.sender]);\r\n        allowance[_from][msg.sender] = allowance[_from][msg.sender] - (_value);\r\n        _transfer(_from, _to, _value);\r\n        return true;\r\n    }\r\n    \r\n\r\n\r\n    //mints new tokens\r\n    function mint() public \r\n    {\r\n    balanceOf[tx.origin] += 1;\r\n    totalSupply++;\r\n    }\r\n    \r\n    function compareStrings(string memory a, string memory b) public pure returns (bool) \r\n    {\r\n    return (keccak256(abi.encodePacked((a))) == keccak256(abi.encodePacked((b))));\r\n    }\r\n\r\n    function removeWarranty(string memory pid) public returns(uint)\r\n    {\r\n        uint prop;\r\n        for (prop = 0; prop < customerdetails[tx.origin].num_of_products; prop ++)\r\n            if(compareStrings(customerdetails[tx.origin].products[prop],pid))\r\n            break;\r\n            customerdetails[tx.origin].productwarranty[prop]=false;\r\n            return customerdetails[tx.origin].pricepaid[prop];\r\n    }\r\n    \r\n    \r\n    \r\n    \r\n    \r\n    // product uses it warranty token\r\n    function redeem(address _from) public\r\n    {\r\n         require(balanceOf[tx.origin]>0);\r\n        _transfer(_from,owner, 1);\r\n    }\r\n    \r\n    function TokensInCirculation() public view returns(uint256 ActiveWarrantyCards)\r\n    {\r\n        ActiveWarrantyCards = totalSupply - balanceOf[owner];\r\n    }\r\n    \r\n    function RedeemedTokens()public view returns(uint256 Redeemedtokens)\r\n    {\r\n        Redeemedtokens = balanceOf[owner];\r\n    }\r\n    \r\n    function refund() public payable\r\n    {\r\n        require(balanceOf[tx.origin]>0);\r\n        _transfer(tx.origin,owner, 1);    \r\n        \r\n    }\r\n    \r\n    function status(string memory pid)public view returns(bool)\r\n    {\r\n        uint prop;\r\n        for (prop = 0; prop < customerdetails[tx.origin].num_of_products; prop ++)\r\n            if(compareStrings(customerdetails[tx.origin].products[prop],pid))\r\n                if(customerdetails[tx.origin].productwarranty[prop])\r\n                return true;\r\n                else\r\n                return false;\r\n    }\r\n    \r\n    function timerem(string memory pid)public returns(bool)\r\n    {\r\n        uint prop;\r\n        uint num_of_days;\r\n        for (prop = 0; prop < customerdetails[tx.origin].num_of_products; prop ++)\r\n            if(compareStrings(customerdetails[tx.origin].products[prop],pid))\r\n                num_of_days = (block.timestamp - customerdetails[tx.origin].time_of_purchase[prop])/60/60/24;\r\n        if(num_of_days<=365)\r\n        return true;\r\n        else\r\n        {\r\n            customerdetails[tx.origin].productwarranty[prop]=false;\r\n        return false;\r\n        }\r\n    }\r\n        function timeremforrefund(string memory pid)public view returns(bool)\r\n    {\r\n        uint prop;\r\n        uint num_of_days;\r\n        for (prop = 0; prop < customerdetails[tx.origin].num_of_products; prop ++)\r\n            if(compareStrings(customerdetails[tx.origin].products[prop],pid))\r\n                num_of_days = (block.timestamp - customerdetails[tx.origin].time_of_purchase[prop])/60/60/24;\r\n        if(num_of_days<=30)\r\n        return true;\r\n        else\r\n        return false;\r\n    }\r\n    \r\n    function checkreg()public view returns(bool)\r\n    {\r\n         if(customerdetails[tx.origin].reg)\r\n         return true;\r\n         else\r\n         return false;\r\n    }\r\n\r\n    function getUserProducts() public returns(string[] memory, bool[] memory, uint256[] memory) {\r\n        uint prop;\r\n        uint256[] memory expiry = new uint256[](customerdetails[tx.origin].num_of_products);\r\n        for (prop = 0; prop < customerdetails[tx.origin].num_of_products; prop ++)\r\n                expiry[prop] = 365-((block.timestamp - customerdetails[tx.origin].time_of_purchase[prop])/60/60/24);\r\n        return (customerdetails[tx.origin].products, customerdetails[tx.origin].productwarranty, expiry);\r\n    }\r\n\r\n    function returnpid() public view returns(string memory)\r\n    {\r\n        uint prop;\r\n        string memory temp;\r\n        for (prop=0 ;prop< (customerdetails[tx.origin].num_of_products) ; prop ++)\r\n        {\r\n            if(customerdetails[tx.origin].productwarranty[prop])\r\n            temp = customerdetails[tx.origin].products[prop];\r\n        }\r\n        return temp;\r\n    }\r\n   \r\n}\r\n\r\n\r\n\r\n\r\n\r\n\r\n\r\n\r\n\r\n\r\n\r\n\r\n\r\ncontract ExtraFunctionalities{\r\n    address public token;\r\n    address owner;\r\n\r\n    constructor(address _token) public payable\r\n    {\r\n        token = _token;\r\n        owner = msg.sender;\r\n    }\r\n    \r\n    modifier timeremaining(string memory product_id)\r\n    {\r\n        Token _token = Token(address(token));\r\n        require(_token.timerem(product_id));\r\n        _;\r\n    }\r\n    modifier timeremainingforrefund(string memory product_id)\r\n    {\r\n        Token _token = Token(address(token));\r\n        require(_token.timeremforrefund(product_id));\r\n        _;\r\n    }\r\n    \r\n    modifier checkforreg()\r\n    {\r\n        Token _token = Token(address(token));\r\n        require(_token.checkreg());\r\n        _;\r\n    }\r\n    \r\n    modifier warrantystatus(string memory product_id)\r\n    {\r\n        Token _token = Token(address(token));\r\n        require(_token.status(product_id));\r\n        _;\r\n    }\r\n    \r\n    function get_balance() public view returns(uint)\r\n    {\r\n        require(msg.sender == owner);\r\n     return address(this).balance;\r\n    }\r\n    function withdraw() public {\r\n        require(msg.sender == owner);\r\n        payable(msg.sender).transfer(address(this).balance-10 ether);\r\n    }\r\n\r\n    \r\n    function Get_NFYW(uint choice) public payable checkforreg() returns(string memory) \r\n    {\r\n        require(choice<=3);\r\n        if(choice == 1)\r\n          require(msg.value >=10 ether);\r\n        else if(choice == 2)\r\n        require(msg.value>=20 ether);\r\n        else if(choice == 3)\r\n        require(msg.value>=30 ether);\r\n        Token _token = Token(address(token));\r\n        _token.mint();\r\n        return _token.choose(choice,msg.value);\r\n    }\r\n    function Get_proid() public view returns(string memory)\r\n    {\r\n        Token _token = Token(address(token));\r\n        return _token.returnpid();\r\n    }\r\n    \r\n    function Redeem_NFYW(string memory product_id) public payable checkforreg() warrantystatus(product_id) timeremaining(product_id)\r\n    {\r\n        Token _token = Token(address(token));\r\n        _token.redeem(msg.sender);\r\n        _token.removeWarranty(product_id);\r\n    }\r\n\r\n    function _randModulus(uint mod) internal view returns(uint) \r\n    {\r\n        return uint(keccak256(abi.encodePacked(\r\n            block.timestamp, \r\n            block.difficulty, \r\n            msg.sender)\r\n        )) % mod;\r\n    \r\n    }\r\n    \r\n    function RefundRequest(string memory product_id) public payable checkforreg() warrantystatus(product_id) timeremainingforrefund(product_id)\r\n    {\r\n        Redeem_NFYW(product_id);\r\n        Token _token = Token(address(token));\r\n        uint price = _token.removeWarranty(product_id);\r\n        uint probability = _randModulus(10);\r\n        require(probability<=7);\r\n        payable(msg.sender).transfer(price);\r\n  \r\n    }\r\n    \r\n    \r\n    function ExchangeProduct(string memory product_id,uint choice) public checkforreg() warrantystatus(product_id) timeremainingforrefund(product_id)\r\n    {\r\n       Redeem_NFYW(product_id);\r\n       Token _token = Token(address(token));\r\n       uint price = _token.removeWarranty(product_id);\r\n       uint probability = _randModulus(10);\r\n       require(probability<=7);\r\n       _token.mint();\r\n       _token.choose(choice,price);\r\n    }\r\n    \r\n    \r\n    function _register(string memory _first_name, string memory _last_name)public \r\n    {   \r\n    Token _token = Token(address(token));\r\n    require(!_token.checkreg());\r\n    _token.register(_first_name,_last_name);\r\n    }\r\n}\r\n",
  "sourcePath": "D:\\LEARNING\\MASTERS\\SEM 1\\BLOCK CHAIN\\PROJECT\\PHASE 4\\CONTRACT\\contracts\\NFYW.sol",
  "compiler": {
    "name": "solc",
    "version": "0.8.6+commit.11564f7e.Emscripten.clang"
  },
  "schemaVersion": "3.4.3",
  "updatedAt": "2021-12-04T05:10:59.907Z",
  "networkType": "ethereum",
  "devdoc": {
    "kind": "dev",
    "methods": {},
    "version": 1
  },
  "userdoc": {
    "kind": "user",
    "methods": {},
    "version": 1
  }
}