{
  "contractName": "Token",
  "abi": [
    {
      "inputs": [],
      "stateMutability": "payable",
      "type": "constructor",
      "payable": true
    },
    {
      "anonymous": false,
      "inputs": [
        {
          "indexed": true,
          "internalType": "address",
          "name": "from",
          "type": "address"
        },
        {
          "indexed": true,
          "internalType": "address",
          "name": "to",
          "type": "address"
        },
        {
          "indexed": false,
          "internalType": "uint256",
          "name": "value",
          "type": "uint256"
        }
      ],
      "name": "Transfer",
      "type": "event"
    },
    {
      "inputs": [
        {
          "internalType": "address",
          "name": "",
          "type": "address"
        },
        {
          "internalType": "address",
          "name": "",
          "type": "address"
        }
      ],
      "name": "allowance",
      "outputs": [
        {
          "internalType": "uint256",
          "name": "",
          "type": "uint256"
        }
      ],
      "stateMutability": "view",
      "type": "function",
      "constant": true
    },
    {
      "inputs": [
        {
          "internalType": "address",
          "name": "",
          "type": "address"
        }
      ],
      "name": "balanceOf",
      "outputs": [
        {
          "internalType": "uint256",
          "name": "",
          "type": "uint256"
        }
      ],
      "stateMutability": "view",
      "type": "function",
      "constant": true
    },
    {
      "inputs": [
        {
          "internalType": "address",
          "name": "",
          "type": "address"
        }
      ],
      "name": "customerdetails",
      "outputs": [
        {
          "internalType": "address",
          "name": "customeraddress",
          "type": "address"
        },
        {
          "internalType": "bool",
          "name": "reg",
          "type": "bool"
        },
        {
          "internalType": "uint256",
          "name": "num_of_products",
          "type": "uint256"
        },
        {
          "internalType": "string",
          "name": "first_name",
          "type": "string"
        },
        {
          "internalType": "string",
          "name": "last_name",
          "type": "string"
        }
      ],
      "stateMutability": "view",
      "type": "function",
      "constant": true
    },
    {
      "inputs": [],
      "name": "decimals",
      "outputs": [
        {
          "internalType": "uint256",
          "name": "",
          "type": "uint256"
        }
      ],
      "stateMutability": "view",
      "type": "function",
      "constant": true
    },
    {
      "inputs": [],
      "name": "name",
      "outputs": [
        {
          "internalType": "string",
          "name": "",
          "type": "string"
        }
      ],
      "stateMutability": "view",
      "type": "function",
      "constant": true
    },
    {
      "inputs": [],
      "name": "owner",
      "outputs": [
        {
          "internalType": "address",
          "name": "",
          "type": "address"
        }
      ],
      "stateMutability": "view",
      "type": "function",
      "constant": true
    },
    {
      "inputs": [],
      "name": "symbol",
      "outputs": [
        {
          "internalType": "string",
          "name": "",
          "type": "string"
        }
      ],
      "stateMutability": "view",
      "type": "function",
      "constant": true
    },
    {
      "inputs": [],
      "name": "totalSupply",
      "outputs": [
        {
          "internalType": "uint256",
          "name": "",
          "type": "uint256"
        }
      ],
      "stateMutability": "view",
      "type": "function",
      "constant": true
    },
    {
      "inputs": [
        {
          "internalType": "string",
          "name": "_first_name",
          "type": "string"
        },
        {
          "internalType": "string",
          "name": "_last_name",
          "type": "string"
        }
      ],
      "name": "register",
      "outputs": [],
      "stateMutability": "nonpayable",
      "type": "function"
    },
    {
      "inputs": [
        {
          "internalType": "uint256",
          "name": "choice",
          "type": "uint256"
        },
        {
          "internalType": "uint256",
          "name": "amount",
          "type": "uint256"
        }
      ],
      "name": "choose",
      "outputs": [
        {
          "internalType": "string",
          "name": "",
          "type": "string"
        }
      ],
      "stateMutability": "payable",
      "type": "function",
      "payable": true
    },
    {
      "inputs": [],
      "name": "displayproductID",
      "outputs": [
        {
          "internalType": "string",
          "name": "",
          "type": "string"
        }
      ],
      "stateMutability": "view",
      "type": "function",
      "constant": true
    },
    {
      "inputs": [
        {
          "internalType": "enum Token.productchoice",
          "name": "pro",
          "type": "uint8"
        }
      ],
      "name": "product_number",
      "outputs": [
        {
          "internalType": "string",
          "name": "",
          "type": "string"
        }
      ],
      "stateMutability": "nonpayable",
      "type": "function"
    },
    {
      "inputs": [
        {
          "internalType": "address",
          "name": "_to",
          "type": "address"
        },
        {
          "internalType": "uint256",
          "name": "_value",
          "type": "uint256"
        }
      ],
      "name": "transfer",
      "outputs": [
        {
          "internalType": "bool",
          "name": "success",
          "type": "bool"
        }
      ],
      "stateMutability": "payable",
      "type": "function",
      "payable": true
    },
    {
      "inputs": [
        {
          "internalType": "address",
          "name": "_from",
          "type": "address"
        },
        {
          "internalType": "address",
          "name": "_to",
          "type": "address"
        },
        {
          "internalType": "uint256",
          "name": "_value",
          "type": "uint256"
        }
      ],
      "name": "transferFrom",
      "outputs": [
        {
          "internalType": "bool",
          "name": "",
          "type": "bool"
        }
      ],
      "stateMutability": "payable",
      "type": "function",
      "payable": true
    },
    {
      "inputs": [],
      "name": "mint",
      "outputs": [],
      "stateMutability": "nonpayable",
      "type": "function"
    },
    {
      "inputs": [
        {
          "internalType": "string",
          "name": "a",
          "type": "string"
        },
        {
          "internalType": "string",
          "name": "b",
          "type": "string"
        }
      ],
      "name": "compareStrings",
      "outputs": [
        {
          "internalType": "bool",
          "name": "",
          "type": "bool"
        }
      ],
      "stateMutability": "pure",
      "type": "function",
      "constant": true
    },
    {
      "inputs": [
        {
          "internalType": "string",
          "name": "pid",
          "type": "string"
        }
      ],
      "name": "removeWarranty",
      "outputs": [
        {
          "internalType": "uint256",
          "name": "",
          "type": "uint256"
        }
      ],
      "stateMutability": "nonpayable",
      "type": "function"
    },
    {
      "inputs": [
        {
          "internalType": "address",
          "name": "_from",
          "type": "address"
        }
      ],
      "name": "redeem",
      "outputs": [],
      "stateMutability": "nonpayable",
      "type": "function"
    },
    {
      "inputs": [],
      "name": "TokensInCirculation",
      "outputs": [
        {
          "internalType": "uint256",
          "name": "ActiveWarrantyCards",
          "type": "uint256"
        }
      ],
      "stateMutability": "view",
      "type": "function",
      "constant": true
    },
    {
      "inputs": [],
      "name": "RedeemedTokens",
      "outputs": [
        {
          "internalType": "uint256",
          "name": "Redeemedtokens",
          "type": "uint256"
        }
      ],
      "stateMutability": "view",
      "type": "function",
      "constant": true
    },
    {
      "inputs": [],
      "name": "refund",
      "outputs": [],
      "stateMutability": "payable",
      "type": "function",
      "payable": true
    },
    {
      "inputs": [
        {
          "internalType": "string",
          "name": "pid",
          "type": "string"
        }
      ],
      "name": "status",
      "outputs": [
        {
          "internalType": "bool",
          "name": "",
          "type": "bool"
        }
      ],
      "stateMutability": "view",
      "type": "function",
      "constant": true
    },
    {
      "inputs": [
        {
          "internalType": "string",
          "name": "pid",
          "type": "string"
        }
      ],
      "name": "timerem",
      "outputs": [
        {
          "internalType": "bool",
          "name": "",
          "type": "bool"
        }
      ],
      "stateMutability": "nonpayable",
      "type": "function"
    },
    {
      "inputs": [
        {
          "internalType": "string",
          "name": "pid",
          "type": "string"
        }
      ],
      "name": "timeremforrefund",
      "outputs": [
        {
          "internalType": "bool",
          "name": "",
          "type": "bool"
        }
      ],
      "stateMutability": "view",
      "type": "function",
      "constant": true
    },
    {
      "inputs": [],
      "name": "checkreg",
      "outputs": [
        {
          "internalType": "bool",
          "name": "",
          "type": "bool"
        }
      ],
      "stateMutability": "view",
      "type": "function",
      "constant": true
    },
    {
      "inputs": [],
      "name": "getUserProducts",
      "outputs": [
        {
          "internalType": "string[]",
          "name": "",
          "type": "string[]"
        },
        {
          "internalType": "bool[]",
          "name": "",
          "type": "bool[]"
        }
      ],
      "stateMutability": "nonpayable",
      "type": "function"
    },
    {
      "inputs": [],
      "name": "returnpid",
      "outputs": [
        {
          "internalType": "string",
          "name": "",
          "type": "string"
        }
      ],
      "stateMutability": "view",
      "type": "function",
      "constant": true
    }
  ],
  "bytecode": "0x60806040526040518060400160405280600881526020017f57415252414e5459000000000000000000000000000000000000000000000000815250600190805190602001906200005192919062000154565b506040518060400160405280600481526020017f4e46595700000000000000000000000000000000000000000000000000000000815250600290805190602001906200009f92919062000154565b5060006003819055506000600481905550600454600b60003373ffffffffffffffffffffffffffffffffffffffff1673ffffffffffffffffffffffffffffffffffffffff16815260200190815260200160002081905550336000806101000a81548173ffffffffffffffffffffffffffffffffffffffff021916908373ffffffffffffffffffffffffffffffffffffffff16021790555060006006819055506000600781905550600060088190555062000269565b828054620001629062000204565b90600052602060002090601f016020900481019282620001865760008555620001d2565b82601f10620001a157805160ff1916838001178555620001d2565b82800160010185558215620001d2579182015b82811115620001d1578251825591602001919060010190620001b4565b5b509050620001e19190620001e5565b5090565b5b8082111562000200576000816000905550600101620001e6565b5090565b600060028204905060018216806200021d57607f821691505b602082108114156200023457620002336200023a565b5b50919050565b7f4e487b7100000000000000000000000000000000000000000000000000000000600052602260045260246000fd5b6135ff80620002796000396000f3fe60806040526004361061019c5760003560e01c80638d994d6f116100ec578063a9059cbb1161008a578063dab1ab7611610064578063dab1ab76146105b3578063dd62ed3e146105f0578063e4bed4d41461062d578063e8ca64f41461066a5761019c565b8063a9059cbb1461051a578063aba7b3141461054a578063bed34bba146105765761019c565b806395d89b41116100c657806395d89b411461046e578063966d18331461049957806397bd68e9146104c45780639d929e78146104ef5761019c565b80638d994d6f146103dd5780638da5cb5b1461041a57806395a2251f146104455761019c565b80632819e85e116101595780633ffbd47f116101335780633ffbd47f1461034257806341ff7b5a1461036b578063590e1ae31461039657806370a08231146103a05761019c565b80632819e85e146102ab57806328f3e92a146102ec578063313ce567146103175761019c565b806306fdde03146101a15780631249c58b146101cc57806313ba8000146101e357806318160ddd146102135780631e75f68c1461023e57806323b872dd1461027b575b600080fd5b3480156101ad57600080fd5b506101b66106a7565b6040516101c39190613080565b60405180910390f35b3480156101d857600080fd5b506101e1610735565b005b6101fd60048036038101906101f89190612d59565b6107a6565b60405161020a9190613080565b60405180910390f35b34801561021f57600080fd5b50610228610b16565b60405161023591906130a2565b60405180910390f35b34801561024a57600080fd5b5061026560048036038101906102609190612c98565b610b1c565b6040516102729190613065565b60405180910390f35b61029560048036038101906102909190612bd8565b610d26565b6040516102a29190613065565b60405180910390f35b3480156102b757600080fd5b506102d260048036038101906102cd9190612b6b565b610f1b565b6040516102e3959493929190612fcd565b60405180910390f35b3480156102f857600080fd5b5061030161108e565b60405161030e91906130a2565b60405180910390f35b34801561032357600080fd5b5061032c6110f6565b60405161033991906130a2565b60405180910390f35b34801561034e57600080fd5b5061036960048036038101906103649190612ce1565b6110fc565b005b34801561037757600080fd5b506103806112b1565b60405161038d9190613080565b60405180910390f35b61039e6113a0565b005b3480156103ac57600080fd5b506103c760048036038101906103c29190612b6b565b61141a565b6040516103d491906130a2565b60405180910390f35b3480156103e957600080fd5b5061040460048036038101906103ff9190612c98565b611432565b60405161041191906130a2565b60405180910390f35b34801561042657600080fd5b5061042f611677565b60405161043c9190612fb2565b60405180910390f35b34801561045157600080fd5b5061046c60048036038101906104679190612b6b565b61169b565b005b34801561047a57600080fd5b50610483611716565b6040516104909190613080565b60405180910390f35b3480156104a557600080fd5b506104ae6117a4565b6040516104bb9190613065565b60405180910390f35b3480156104d057600080fd5b506104d961180c565b6040516104e691906130a2565b60405180910390f35b3480156104fb57600080fd5b50610504611881565b6040516105119190613080565b60405180910390f35b610534600480360381019061052f9190612c2b565b611a54565b6040516105419190613065565b60405180910390f35b34801561055657600080fd5b5061055f611ab7565b60405161056d92919061302e565b60405180910390f35b34801561058257600080fd5b5061059d60048036038101906105989190612ce1565b611c90565b6040516105aa9190613065565b60405180910390f35b3480156105bf57600080fd5b506105da60048036038101906105d59190612c98565b611ce9565b6040516105e79190613065565b60405180910390f35b3480156105fc57600080fd5b5061061760048036038101906106129190612b98565b611f73565b60405161062491906130a2565b60405180910390f35b34801561063957600080fd5b50610654600480360381019061064f9190612c6b565b611f98565b6040516106619190613080565b60405180910390f35b34801561067657600080fd5b50610691600480360381019061068c9190612c98565b612429565b60405161069e9190613065565b60405180910390f35b600180546106b4906133a0565b80601f01602080910402602001604051908101604052809291908181526020018280546106e0906133a0565b801561072d5780601f106107025761010080835404028352916020019161072d565b820191906000526020600020905b81548152906001019060200180831161071057829003601f168201915b505050505081565b6001600b60003273ffffffffffffffffffffffffffffffffffffffff1673ffffffffffffffffffffffffffffffffffffffff168152602001908152602001600020600082825461078591906131bd565b925050819055506004600081548092919061079f90613403565b9190505550565b606060011515600a60003273ffffffffffffffffffffffffffffffffffffffff1673ffffffffffffffffffffffffffffffffffffffff16815260200190815260200160002060000160149054906101000a900460ff1615151461080857600080fd5b60018314156108215761081b6000611f98565b50610851565b600283141561083a576108346002611f98565b50610850565b600383141561084f5761084d6001611f98565b505b5b5b600a60003273ffffffffffffffffffffffffffffffffffffffff1673ffffffffffffffffffffffffffffffffffffffff1681526020019081526020016000206004016005908060018154018082558091505060019003906000526020600020016000909190919091509080546108c6906133a0565b6108d192919061298c565b50600a60003273ffffffffffffffffffffffffffffffffffffffff1673ffffffffffffffffffffffffffffffffffffffff1681526020019081526020016000206005014290806001815401808255809150506001900390600052602060002001600090919091909150556001600a60003273ffffffffffffffffffffffffffffffffffffffff1673ffffffffffffffffffffffffffffffffffffffff168152602001908152602001600020600101600082825461098e91906131bd565b92505081905550600a60003273ffffffffffffffffffffffffffffffffffffffff1673ffffffffffffffffffffffffffffffffffffffff168152602001908152602001600020600601829080600181540180825580915050600190039060005260206000200160009091909190915055600a60003273ffffffffffffffffffffffffffffffffffffffff1673ffffffffffffffffffffffffffffffffffffffff168152602001908152602001600020600701600190806001815401808255809150506001900390600052602060002090602091828204019190069091909190916101000a81548160ff02191690831515021790555060058054610a90906133a0565b80601f0160208091040260200160405190810160405280929190818152602001828054610abc906133a0565b8015610b095780601f10610ade57610100808354040283529160200191610b09565b820191906000526020600020905b815481529060010190602001808311610aec57829003601f168201915b5050505050905092915050565b60045481565b60008060008091505b600a60003273ffffffffffffffffffffffffffffffffffffffff1673ffffffffffffffffffffffffffffffffffffffff16815260200190815260200160002060010154821015610d0757610c5f600a60003273ffffffffffffffffffffffffffffffffffffffff1673ffffffffffffffffffffffffffffffffffffffff1681526020019081526020016000206004018381548110610bc657610bc5613508565b5b906000526020600020018054610bdb906133a0565b80601f0160208091040260200160405190810160405280929190818152602001828054610c07906133a0565b8015610c545780601f10610c2957610100808354040283529160200191610c54565b820191906000526020600020905b815481529060010190602001808311610c3757829003601f168201915b505050505085611c90565b15610cf4576018603c80600a60003273ffffffffffffffffffffffffffffffffffffffff1673ffffffffffffffffffffffffffffffffffffffff1681526020019081526020016000206005018581548110610cbd57610cbc613508565b5b906000526020600020015442610cd391906132d5565b610cdd919061324a565b610ce7919061324a565b610cf1919061324a565b90505b8180610cff90613403565b925050610b25565b601e8111610d1a57600192505050610d21565b6000925050505b919050565b6000600b60008573ffffffffffffffffffffffffffffffffffffffff1673ffffffffffffffffffffffffffffffffffffffff16815260200190815260200160002054821115610d7457600080fd5b600c60008573ffffffffffffffffffffffffffffffffffffffff1673ffffffffffffffffffffffffffffffffffffffff16815260200190815260200160002060003373ffffffffffffffffffffffffffffffffffffffff1673ffffffffffffffffffffffffffffffffffffffff16815260200190815260200160002054821115610dfd57600080fd5b81600c60008673ffffffffffffffffffffffffffffffffffffffff1673ffffffffffffffffffffffffffffffffffffffff16815260200190815260200160002060003373ffffffffffffffffffffffffffffffffffffffff1673ffffffffffffffffffffffffffffffffffffffff16815260200190815260200160002054610e8591906132d5565b600c60008673ffffffffffffffffffffffffffffffffffffffff1673ffffffffffffffffffffffffffffffffffffffff16815260200190815260200160002060003373ffffffffffffffffffffffffffffffffffffffff1673ffffffffffffffffffffffffffffffffffffffff16815260200190815260200160002081905550610f10848484612617565b600190509392505050565b600a6020528060005260406000206000915090508060000160009054906101000a900473ffffffffffffffffffffffffffffffffffffffff16908060000160149054906101000a900460ff1690806001015490806002018054610f7d906133a0565b80601f0160208091040260200160405190810160405280929190818152602001828054610fa9906133a0565b8015610ff65780601f10610fcb57610100808354040283529160200191610ff6565b820191906000526020600020905b815481529060010190602001808311610fd957829003601f168201915b50505050509080600301805461100b906133a0565b80601f0160208091040260200160405190810160405280929190818152602001828054611037906133a0565b80156110845780601f1061105957610100808354040283529160200191611084565b820191906000526020600020905b81548152906001019060200180831161106757829003601f168201915b5050505050905085565b6000600b60008060009054906101000a900473ffffffffffffffffffffffffffffffffffffffff1673ffffffffffffffffffffffffffffffffffffffff1673ffffffffffffffffffffffffffffffffffffffff16815260200190815260200160002054905090565b60035481565b60001515600a60003273ffffffffffffffffffffffffffffffffffffffff1673ffffffffffffffffffffffffffffffffffffffff16815260200190815260200160002060000160149054906101000a900460ff1615151461115c57600080fd5b6001600a60003273ffffffffffffffffffffffffffffffffffffffff1673ffffffffffffffffffffffffffffffffffffffff16815260200190815260200160002060000160146101000a81548160ff02191690831515021790555081600a60003273ffffffffffffffffffffffffffffffffffffffff1673ffffffffffffffffffffffffffffffffffffffff168152602001908152602001600020600201908051906020019061120d929190612a19565b5080600a60003273ffffffffffffffffffffffffffffffffffffffff1673ffffffffffffffffffffffffffffffffffffffff1681526020019081526020016000206003019080519060200190611264929190612a19565b506000600a60003273ffffffffffffffffffffffffffffffffffffffff1673ffffffffffffffffffffffffffffffffffffffff168152602001908152602001600020600101819055505050565b6060600a60003273ffffffffffffffffffffffffffffffffffffffff1673ffffffffffffffffffffffffffffffffffffffff16815260200190815260200160002060040160008154811061130857611307613508565b5b90600052602060002001805461131d906133a0565b80601f0160208091040260200160405190810160405280929190818152602001828054611349906133a0565b80156113965780601f1061136b57610100808354040283529160200191611396565b820191906000526020600020905b81548152906001019060200180831161137957829003601f168201915b5050505050905090565b6000600b60003273ffffffffffffffffffffffffffffffffffffffff1673ffffffffffffffffffffffffffffffffffffffff16815260200190815260200160002054116113ec57600080fd5b6114183260008054906101000a900473ffffffffffffffffffffffffffffffffffffffff166001612617565b565b600b6020528060005260406000206000915090505481565b600080600090505b600a60003273ffffffffffffffffffffffffffffffffffffffff1673ffffffffffffffffffffffffffffffffffffffff1681526020019081526020016000206001015481101561159157611574600a60003273ffffffffffffffffffffffffffffffffffffffff1673ffffffffffffffffffffffffffffffffffffffff16815260200190815260200160002060040182815481106114db576114da613508565b5b9060005260206000200180546114f0906133a0565b80601f016020809104026020016040519081016040528092919081815260200182805461151c906133a0565b80156115695780601f1061153e57610100808354040283529160200191611569565b820191906000526020600020905b81548152906001019060200180831161154c57829003601f168201915b505050505084611c90565b1561157e57611591565b808061158990613403565b91505061143a565b6000600a60003273ffffffffffffffffffffffffffffffffffffffff1673ffffffffffffffffffffffffffffffffffffffff16815260200190815260200160002060070182815481106115e7576115e6613508565b5b90600052602060002090602091828204019190066101000a81548160ff021916908315150217905550600a60003273ffffffffffffffffffffffffffffffffffffffff1673ffffffffffffffffffffffffffffffffffffffff168152602001908152602001600020600601818154811061166457611663613508565b5b9060005260206000200154915050919050565b60008054906101000a900473ffffffffffffffffffffffffffffffffffffffff1681565b6000600b60003273ffffffffffffffffffffffffffffffffffffffff1673ffffffffffffffffffffffffffffffffffffffff16815260200190815260200160002054116116e757600080fd5b6117138160008054906101000a900473ffffffffffffffffffffffffffffffffffffffff166001612617565b50565b60028054611723906133a0565b80601f016020809104026020016040519081016040528092919081815260200182805461174f906133a0565b801561179c5780601f106117715761010080835404028352916020019161179c565b820191906000526020600020905b81548152906001019060200180831161177f57829003601f168201915b505050505081565b6000600a60003273ffffffffffffffffffffffffffffffffffffffff1673ffffffffffffffffffffffffffffffffffffffff16815260200190815260200160002060000160149054906101000a900460ff16156118045760019050611809565b600090505b90565b6000600b60008060009054906101000a900473ffffffffffffffffffffffffffffffffffffffff1673ffffffffffffffffffffffffffffffffffffffff1673ffffffffffffffffffffffffffffffffffffffff1681526020019081526020016000205460045461187c91906132d5565b905090565b606060006060600091505b600a60003273ffffffffffffffffffffffffffffffffffffffff1673ffffffffffffffffffffffffffffffffffffffff16815260200190815260200160002060010154821015611a4c57600a60003273ffffffffffffffffffffffffffffffffffffffff1673ffffffffffffffffffffffffffffffffffffffff168152602001908152602001600020600701828154811061192a57611929613508565b5b90600052602060002090602091828204019190069054906101000a900460ff1615611a3957600a60003273ffffffffffffffffffffffffffffffffffffffff1673ffffffffffffffffffffffffffffffffffffffff16815260200190815260200160002060040182815481106119a3576119a2613508565b5b9060005260206000200180546119b8906133a0565b80601f01602080910402602001604051908101604052809291908181526020018280546119e4906133a0565b8015611a315780601f10611a0657610100808354040283529160200191611a31565b820191906000526020600020905b815481529060010190602001808311611a1457829003601f168201915b505050505090505b8180611a4490613403565b92505061188c565b809250505090565b600081600b60003373ffffffffffffffffffffffffffffffffffffffff1673ffffffffffffffffffffffffffffffffffffffff168152602001908152602001600020541015611aa257600080fd5b611aad338484612617565b6001905092915050565b606080600a60003273ffffffffffffffffffffffffffffffffffffffff1673ffffffffffffffffffffffffffffffffffffffff168152602001908152602001600020600401600a60003273ffffffffffffffffffffffffffffffffffffffff1673ffffffffffffffffffffffffffffffffffffffff16815260200190815260200160002060070181805480602002602001604051908101604052809291908181526020016000905b82821015611c0b578382906000526020600020018054611b7e906133a0565b80601f0160208091040260200160405190810160405280929190818152602001828054611baa906133a0565b8015611bf75780601f10611bcc57610100808354040283529160200191611bf7565b820191906000526020600020905b815481529060010190602001808311611bda57829003601f168201915b505050505081526020019060010190611b5f565b50505050915080805480602002602001604051908101604052809291908181526020018280548015611c8157602002820191906000526020600020906000905b82829054906101000a900460ff16151581526020019060010190602082600001049283019260010382029150808411611c4b5790505b50505050509050915091509091565b600081604051602001611ca39190612f77565b6040516020818303038152906040528051906020012083604051602001611cca9190612f77565b6040516020818303038152906040528051906020012014905092915050565b60008060008091505b600a60003273ffffffffffffffffffffffffffffffffffffffff1673ffffffffffffffffffffffffffffffffffffffff16815260200190815260200160002060010154821015611ed457611e2c600a60003273ffffffffffffffffffffffffffffffffffffffff1673ffffffffffffffffffffffffffffffffffffffff1681526020019081526020016000206004018381548110611d9357611d92613508565b5b906000526020600020018054611da8906133a0565b80601f0160208091040260200160405190810160405280929190818152602001828054611dd4906133a0565b8015611e215780601f10611df657610100808354040283529160200191611e21565b820191906000526020600020905b815481529060010190602001808311611e0457829003601f168201915b505050505085611c90565b15611ec1576018603c80600a60003273ffffffffffffffffffffffffffffffffffffffff1673ffffffffffffffffffffffffffffffffffffffff1681526020019081526020016000206005018581548110611e8a57611e89613508565b5b906000526020600020015442611ea091906132d5565b611eaa919061324a565b611eb4919061324a565b611ebe919061324a565b90505b8180611ecc90613403565b925050611cf2565b61016d8111611ee857600192505050611f6e565b6000600a60003273ffffffffffffffffffffffffffffffffffffffff1673ffffffffffffffffffffffffffffffffffffffff1681526020019081526020016000206007018381548110611f3e57611f3d613508565b5b90600052602060002090602091828204019190066101000a81548160ff0219169083151502179055506000925050505b919050565b600c602052816000526040600020602052806000526040600020600091509150505481565b60606040518060200160405280600081525060059080519060200190611fbf929190612a19565b5060006002811115611fd457611fd36134aa565b5b826002811115611fe757611fe66134aa565b5b14156121085760016007600082825461200091906131bd565b925050819055506120126007546127d7565b60099080519060200190612027929190612a19565b506120f16040518060400160405280600181526020017f70000000000000000000000000000000000000000000000000000000000000008152506009805461206e906133a0565b80601f016020809104026020016040519081016040528092919081815260200182805461209a906133a0565b80156120e75780601f106120bc576101008083540402835291602001916120e7565b820191906000526020600020905b8154815290600101906020018083116120ca57829003601f168201915b5050505050612960565b60059080519060200190612106929190612a19565b505b6001600281111561211c5761211b6134aa565b5b82600281111561212f5761212e6134aa565b5b14156122505760016006600082825461214891906131bd565b9250508190555061215a6006546127d7565b6009908051906020019061216f929190612a19565b506122396040518060400160405280600181526020017f6c00000000000000000000000000000000000000000000000000000000000000815250600980546121b6906133a0565b80601f01602080910402602001604051908101604052809291908181526020018280546121e2906133a0565b801561222f5780601f106122045761010080835404028352916020019161222f565b820191906000526020600020905b81548152906001019060200180831161221257829003601f168201915b5050505050612960565b6005908051906020019061224e929190612a19565b505b600280811115612263576122626134aa565b5b826002811115612276576122756134aa565b5b14156123975760016008600082825461228f91906131bd565b925050819055506122a16008546127d7565b600990805190602001906122b6929190612a19565b506123806040518060400160405280600181526020017f6d00000000000000000000000000000000000000000000000000000000000000815250600980546122fd906133a0565b80601f0160208091040260200160405190810160405280929190818152602001828054612329906133a0565b80156123765780601f1061234b57610100808354040283529160200191612376565b820191906000526020600020905b81548152906001019060200180831161235957829003601f168201915b5050505050612960565b60059080519060200190612395929190612a19565b505b600580546123a4906133a0565b80601f01602080910402602001604051908101604052809291908181526020018280546123d0906133a0565b801561241d5780601f106123f25761010080835404028352916020019161241d565b820191906000526020600020905b81548152906001019060200180831161240057829003601f168201915b50505050509050919050565b600080600090505b600a60003273ffffffffffffffffffffffffffffffffffffffff1673ffffffffffffffffffffffffffffffffffffffff168152602001908152602001600020600101548110156126105761256b600a60003273ffffffffffffffffffffffffffffffffffffffff1673ffffffffffffffffffffffffffffffffffffffff16815260200190815260200160002060040182815481106124d2576124d1613508565b5b9060005260206000200180546124e7906133a0565b80601f0160208091040260200160405190810160405280929190818152602001828054612513906133a0565b80156125605780601f1061253557610100808354040283529160200191612560565b820191906000526020600020905b81548152906001019060200180831161254357829003601f168201915b505050505084611c90565b156125fd57600a60003273ffffffffffffffffffffffffffffffffffffffff1673ffffffffffffffffffffffffffffffffffffffff16815260200190815260200160002060070181815481106125c4576125c3613508565b5b90600052602060002090602091828204019190069054906101000a900460ff16156125f3576001915050612612565b6000915050612612565b808061260890613403565b915050612431565b505b919050565b600073ffffffffffffffffffffffffffffffffffffffff168273ffffffffffffffffffffffffffffffffffffffff16141561265157600080fd5b80600b60008573ffffffffffffffffffffffffffffffffffffffff1673ffffffffffffffffffffffffffffffffffffffff1681526020019081526020016000205461269c91906132d5565b600b60008573ffffffffffffffffffffffffffffffffffffffff1673ffffffffffffffffffffffffffffffffffffffff1681526020019081526020016000208190555080600b60008473ffffffffffffffffffffffffffffffffffffffff1673ffffffffffffffffffffffffffffffffffffffff1681526020019081526020016000205461272a91906131bd565b600b60008473ffffffffffffffffffffffffffffffffffffffff1673ffffffffffffffffffffffffffffffffffffffff168152602001908152602001600020819055508173ffffffffffffffffffffffffffffffffffffffff168373ffffffffffffffffffffffffffffffffffffffff167fddf252ad1be2c89b69c2b068fc378daa952ba7f163c4a11628f55a4df523b3ef836040516127ca91906130a2565b60405180910390a3505050565b6060600082141561281f576040518060400160405280600181526020017f3000000000000000000000000000000000000000000000000000000000000000815250905061295b565b600082905060005b6000821461285157808061283a90613403565b915050600a8261284a919061324a565b9150612827565b60008167ffffffffffffffff81111561286d5761286c613537565b5b6040519080825280601f01601f19166020018201604052801561289f5781602001600182028036833780820191505090505b50905060008290505b60008614612953576001816128bd91906132d5565b90506000600a80886128cf919061324a565b6128d9919061327b565b876128e491906132d5565b60306128f09190613213565b905060008160f81b90508084848151811061290e5761290d613508565b5b60200101907effffffffffffffffffffffffffffffffffffffffffffffffffffffffffffff1916908160001a905350600a8861294a919061324a565b975050506128a8565b819450505050505b919050565b60608282604051602001612975929190612f8e565b604051602081830303815290604052905092915050565b828054612998906133a0565b90600052602060002090601f0160209004810192826129ba5760008555612a08565b82601f106129cb5780548555612a08565b82800160010185558215612a0857600052602060002091601f016020900482015b82811115612a075782548255916001019190600101906129ec565b5b509050612a159190612a9f565b5090565b828054612a25906133a0565b90600052602060002090601f016020900481019282612a475760008555612a8e565b82601f10612a6057805160ff1916838001178555612a8e565b82800160010185558215612a8e579182015b82811115612a8d578251825591602001919060010190612a72565b5b509050612a9b9190612a9f565b5090565b5b80821115612ab8576000816000905550600101612aa0565b5090565b6000612acf612aca846130e2565b6130bd565b905082815260208101848484011115612aeb57612aea61356b565b5b612af684828561335e565b509392505050565b600081359050612b0d8161358b565b92915050565b600081359050612b22816135a2565b92915050565b600082601f830112612b3d57612b3c613566565b5b8135612b4d848260208601612abc565b91505092915050565b600081359050612b65816135b2565b92915050565b600060208284031215612b8157612b80613575565b5b6000612b8f84828501612afe565b91505092915050565b60008060408385031215612baf57612bae613575565b5b6000612bbd85828601612afe565b9250506020612bce85828601612afe565b9150509250929050565b600080600060608486031215612bf157612bf0613575565b5b6000612bff86828701612afe565b9350506020612c1086828701612afe565b9250506040612c2186828701612b56565b9150509250925092565b60008060408385031215612c4257612c41613575565b5b6000612c5085828601612afe565b9250506020612c6185828601612b56565b9150509250929050565b600060208284031215612c8157612c80613575565b5b6000612c8f84828501612b13565b91505092915050565b600060208284031215612cae57612cad613575565b5b600082013567ffffffffffffffff811115612ccc57612ccb613570565b5b612cd884828501612b28565b91505092915050565b60008060408385031215612cf857612cf7613575565b5b600083013567ffffffffffffffff811115612d1657612d15613570565b5b612d2285828601612b28565b925050602083013567ffffffffffffffff811115612d4357612d42613570565b5b612d4f85828601612b28565b9150509250929050565b60008060408385031215612d7057612d6f613575565b5b6000612d7e85828601612b56565b9250506020612d8f85828601612b56565b9150509250929050565b6000612da58383612ea7565b60208301905092915050565b6000612dbd8383612ec5565b905092915050565b612dce81613309565b82525050565b6000612ddf82613133565b612de9818561316e565b9350612df483613113565b8060005b83811015612e25578151612e0c8882612d99565b9750612e1783613154565b925050600181019050612df8565b5085935050505092915050565b6000612e3d8261313e565b612e47818561317f565b935083602082028501612e5985613123565b8060005b85811015612e955784840389528151612e768582612db1565b9450612e8183613161565b925060208a01995050600181019050612e5d565b50829750879550505050505092915050565b612eb08161331b565b82525050565b612ebf8161331b565b82525050565b6000612ed082613149565b612eda8185613190565b9350612eea81856020860161336d565b612ef38161357a565b840191505092915050565b6000612f0982613149565b612f1381856131a1565b9350612f2381856020860161336d565b612f2c8161357a565b840191505092915050565b6000612f4282613149565b612f4c81856131b2565b9350612f5c81856020860161336d565b80840191505092915050565b612f7181613347565b82525050565b6000612f838284612f37565b915081905092915050565b6000612f9a8285612f37565b9150612fa68284612f37565b91508190509392505050565b6000602082019050612fc76000830184612dc5565b92915050565b600060a082019050612fe26000830188612dc5565b612fef6020830187612eb6565b612ffc6040830186612f68565b818103606083015261300e8185612efe565b905081810360808301526130228184612efe565b90509695505050505050565b600060408201905081810360008301526130488185612e32565b9050818103602083015261305c8184612dd4565b90509392505050565b600060208201905061307a6000830184612eb6565b92915050565b6000602082019050818103600083015261309a8184612efe565b905092915050565b60006020820190506130b76000830184612f68565b92915050565b60006130c76130d8565b90506130d382826133d2565b919050565b6000604051905090565b600067ffffffffffffffff8211156130fd576130fc613537565b5b6131068261357a565b9050602081019050919050565b6000819050602082019050919050565b6000819050602082019050919050565b600081519050919050565b600081519050919050565b600081519050919050565b6000602082019050919050565b6000602082019050919050565b600082825260208201905092915050565b600082825260208201905092915050565b600082825260208201905092915050565b600082825260208201905092915050565b600081905092915050565b60006131c882613347565b91506131d383613347565b9250827fffffffffffffffffffffffffffffffffffffffffffffffffffffffffffffffff038211156132085761320761344c565b5b828201905092915050565b600061321e82613351565b915061322983613351565b92508260ff0382111561323f5761323e61344c565b5b828201905092915050565b600061325582613347565b915061326083613347565b9250826132705761326f61347b565b5b828204905092915050565b600061328682613347565b915061329183613347565b9250817fffffffffffffffffffffffffffffffffffffffffffffffffffffffffffffffff04831182151516156132ca576132c961344c565b5b828202905092915050565b60006132e082613347565b91506132eb83613347565b9250828210156132fe576132fd61344c565b5b828203905092915050565b600061331482613327565b9050919050565b60008115159050919050565b600073ffffffffffffffffffffffffffffffffffffffff82169050919050565b6000819050919050565b600060ff82169050919050565b82818337600083830152505050565b60005b8381101561338b578082015181840152602081019050613370565b8381111561339a576000848401525b50505050565b600060028204905060018216806133b857607f821691505b602082108114156133cc576133cb6134d9565b5b50919050565b6133db8261357a565b810181811067ffffffffffffffff821117156133fa576133f9613537565b5b80604052505050565b600061340e82613347565b91507fffffffffffffffffffffffffffffffffffffffffffffffffffffffffffffffff8214156134415761344061344c565b5b600182019050919050565b7f4e487b7100000000000000000000000000000000000000000000000000000000600052601160045260246000fd5b7f4e487b7100000000000000000000000000000000000000000000000000000000600052601260045260246000fd5b7f4e487b7100000000000000000000000000000000000000000000000000000000600052602160045260246000fd5b7f4e487b7100000000000000000000000000000000000000000000000000000000600052602260045260246000fd5b7f4e487b7100000000000000000000000000000000000000000000000000000000600052603260045260246000fd5b7f4e487b7100000000000000000000000000000000000000000000000000000000600052604160045260246000fd5b600080fd5b600080fd5b600080fd5b600080fd5b6000601f19601f8301169050919050565b61359481613309565b811461359f57600080fd5b50565b600381106135af57600080fd5b50565b6135bb81613347565b81146135c657600080fd5b5056fea2646970667358221220dce203abf0271a061c13f830895b2b70648fbca999c53109952dc31202509fd064736f6c63430008060033",
  "immutableReferences": {},
  "source": "\r\n// SPDX-License-Identifier: MIT\r\npragma solidity >=0.4.22 <=0.8.6; \r\ncontract Token {\r\n\r\n   \r\n    address public owner; //address of the deployer of the smart contract\r\n    string public name;\r\n    string public symbol;\r\n    uint256 public decimals;\r\n    uint256 public totalSupply;\r\n    string productID;\r\n    uint lapindex;\r\n    uint phoneindex;\r\n    uint pcindex;\r\n    string res;\r\n    struct customer\r\n    {\r\n        address customeraddress;\r\n        bool reg;\r\n        uint num_of_products;\r\n        string first_name;\r\n        string last_name;\r\n        string[] products;\r\n        uint256[] time_of_purchase;\r\n        uint256[] pricepaid;\r\n        bool[] productwarranty;\r\n    }\r\n    enum productchoice {PHONE,LAPTOP,PC}\r\n    \r\n    mapping(address => customer) public customerdetails;\r\n    mapping(address => uint256) public balanceOf; // function to find the balance of each address\r\n    mapping(address => mapping(address => uint256)) public allowance;\r\n\r\n\r\n\r\n    // Events - fire events on state changes \r\n    event Transfer(address indexed from, address indexed to, uint256 value);\r\n\r\n    // constructor to be executed after the smart contract is deployed\r\n    constructor() public payable\r\n    {\r\n        name = \"WARRANTY\";\r\n        symbol = \"NFYW\";\r\n        decimals = 0;\r\n        totalSupply = 0; \r\n        balanceOf[msg.sender] = totalSupply;\r\n        owner = msg.sender;\r\n        lapindex = 0;\r\n        phoneindex =0;\r\n        pcindex = 0;\r\n    }\r\n    \r\n    function append(string memory a, string memory b) internal pure returns (string memory) \r\n    {\r\n    return string(abi.encodePacked(a, b));\r\n    }\r\n\r\n    function register(string memory _first_name, string memory _last_name)public \r\n    {   \r\n    require(customerdetails[tx.origin].reg==false);\r\n    customerdetails[tx.origin].reg=true;\r\n    customerdetails[tx.origin].first_name=_first_name;\r\n    customerdetails[tx.origin].last_name=_last_name;\r\n    customerdetails[tx.origin].num_of_products=0;\r\n    }\r\n\r\n\r\n    function choose(uint256 choice,uint amount) public payable returns(string memory)\r\n    {\r\n        require(customerdetails[tx.origin].reg==true);\r\n    if(choice == 1){\r\n    product_number(productchoice.PHONE);\r\n    }\r\n    else if(choice == 2)\r\n    {\r\n    product_number(productchoice.PC);\r\n    }\r\n    else if(choice == 3){\r\n    product_number(productchoice.LAPTOP);\r\n    }\r\n    customerdetails[tx.origin].products.push(productID);\r\n    customerdetails[tx.origin].time_of_purchase.push(block.timestamp);\r\n    customerdetails[tx.origin].num_of_products+=1;\r\n    customerdetails[tx.origin].pricepaid.push(amount);\r\n    customerdetails[tx.origin].productwarranty.push(true);\r\n    return productID;\r\n    \r\n    }\r\n\r\n  \r\n    function displayproductID() public view returns(string memory)\r\n    {\r\n    return customerdetails[tx.origin].products[0];\r\n    }\r\n    \r\n    \r\n    function product_number(productchoice pro) public returns(string memory)\r\n    {\r\n        productID = \"\";\r\n        \r\n        if(pro == productchoice.PHONE)\r\n            {\r\n                phoneindex+=1;\r\n                res= (uintToStr(phoneindex));\r\n                productID = append(\"p\",res);\r\n            }\r\n        if(pro == productchoice.LAPTOP)\r\n            {\r\n                lapindex+=1;\r\n                res = uintToStr(lapindex);\r\n                productID = append(\"l\",res);\r\n            \r\n            }\r\n        if(pro == productchoice.PC)\r\n            {\r\n                pcindex+=1;\r\n                res = uintToStr(pcindex);\r\n                productID = append(\"m\",res);\r\n            }\r\n        return string(productID);\r\n    }\r\n    \r\n    \r\n    function uintToStr(uint _i) internal pure returns (string memory _uintAsString) \r\n    {\r\n        if (_i == 0) {\r\n            return \"0\";\r\n        }\r\n        uint j = _i;\r\n        uint len;\r\n        while (j != 0) {\r\n            len++;\r\n            j /= 10;\r\n        }\r\n        bytes memory bstr = new bytes(len);\r\n        uint k = len;\r\n        while (_i != 0) {\r\n            k = k-1;\r\n            uint8 temp = (48 + uint8(_i - _i / 10 * 10));\r\n            bytes1 b1 = bytes1(temp);\r\n            bstr[k] = b1;\r\n            _i /= 10;\r\n        }\r\n        return string(bstr);\r\n    }\r\n\r\n    \r\n    \r\n    // calls _transfer funciton \r\n    function transfer(address _to, uint256 _value) payable external returns (bool success) \r\n    {\r\n        require(balanceOf[msg.sender] >= _value);\r\n        _transfer(msg.sender, _to, _value);\r\n        return true;\r\n    }\r\n\r\n\r\n    //transfers the Token from sender to receiver\r\n    function _transfer(address _from, address _to, uint256 _value) internal\r\n    {\r\n        // Ensure sending is to valid address! 0x0 address cane be used to burn() \r\n        require(_to != address(0));\r\n        balanceOf[_from] = balanceOf[_from] - (_value);\r\n        balanceOf[_to] = balanceOf[_to] + (_value);\r\n        emit Transfer(_from, _to, _value);\r\n    }\r\n\r\n\r\n    function transferFrom(address _from, address _to, uint256 _value) payable external returns (bool)\r\n    {\r\n        require(_value <= balanceOf[_from]);\r\n        require(_value <= allowance[_from][msg.sender]);\r\n        allowance[_from][msg.sender] = allowance[_from][msg.sender] - (_value);\r\n        _transfer(_from, _to, _value);\r\n        return true;\r\n    }\r\n    \r\n\r\n\r\n    //mints new tokens\r\n    function mint() public \r\n    {\r\n    balanceOf[tx.origin] += 1;\r\n    totalSupply++;\r\n    }\r\n    \r\n    function compareStrings(string memory a, string memory b) public pure returns (bool) \r\n    {\r\n    return (keccak256(abi.encodePacked((a))) == keccak256(abi.encodePacked((b))));\r\n    }\r\n\r\n    function removeWarranty(string memory pid) public returns(uint)\r\n    {\r\n        uint prop;\r\n        for (prop = 0; prop < customerdetails[tx.origin].num_of_products; prop ++)\r\n            if(compareStrings(customerdetails[tx.origin].products[prop],pid))\r\n            break;\r\n            customerdetails[tx.origin].productwarranty[prop]=false;\r\n            return customerdetails[tx.origin].pricepaid[prop];\r\n    }\r\n    \r\n    \r\n    \r\n    \r\n    \r\n    // product uses it warranty token\r\n    function redeem(address _from) public\r\n    {\r\n         require(balanceOf[tx.origin]>0);\r\n        _transfer(_from,owner, 1);\r\n    }\r\n    \r\n    function TokensInCirculation() public view returns(uint256 ActiveWarrantyCards)\r\n    {\r\n        ActiveWarrantyCards = totalSupply - balanceOf[owner];\r\n    }\r\n    \r\n    function RedeemedTokens()public view returns(uint256 Redeemedtokens)\r\n    {\r\n        Redeemedtokens = balanceOf[owner];\r\n    }\r\n    \r\n    function refund() public payable\r\n    {\r\n        require(balanceOf[tx.origin]>0);\r\n        _transfer(tx.origin,owner, 1);    \r\n        \r\n    }\r\n    \r\n    function status(string memory pid)public view returns(bool)\r\n    {\r\n        uint prop;\r\n        for (prop = 0; prop < customerdetails[tx.origin].num_of_products; prop ++)\r\n            if(compareStrings(customerdetails[tx.origin].products[prop],pid))\r\n                if(customerdetails[tx.origin].productwarranty[prop])\r\n                return true;\r\n                else\r\n                return false;\r\n    }\r\n    \r\n    function timerem(string memory pid)public returns(bool)\r\n    {\r\n        uint prop;\r\n        uint num_of_days;\r\n        for (prop = 0; prop < customerdetails[tx.origin].num_of_products; prop ++)\r\n            if(compareStrings(customerdetails[tx.origin].products[prop],pid))\r\n                num_of_days = (block.timestamp - customerdetails[tx.origin].time_of_purchase[prop])/60/60/24;\r\n        if(num_of_days<=365)\r\n        return true;\r\n        else\r\n        {\r\n            customerdetails[tx.origin].productwarranty[prop]=false;\r\n        return false;\r\n        }\r\n    }\r\n        function timeremforrefund(string memory pid)public view returns(bool)\r\n    {\r\n        uint prop;\r\n        uint num_of_days;\r\n        for (prop = 0; prop < customerdetails[tx.origin].num_of_products; prop ++)\r\n            if(compareStrings(customerdetails[tx.origin].products[prop],pid))\r\n                num_of_days = (block.timestamp - customerdetails[tx.origin].time_of_purchase[prop])/60/60/24;\r\n        if(num_of_days<=30)\r\n        return true;\r\n        else\r\n        return false;\r\n    }\r\n    \r\n    function checkreg()public view returns(bool)\r\n    {\r\n         if(customerdetails[tx.origin].reg)\r\n         return true;\r\n         else\r\n         return false;\r\n    }\r\n    \r\n    function getUserProducts() public returns(string[] memory, bool[] memory) {\r\n        return (customerdetails[tx.origin].products, customerdetails[tx.origin].productwarranty);\r\n    }\r\n\r\n    function returnpid() public view returns(string memory)\r\n    {\r\n        uint prop;\r\n        string memory temp;\r\n        for (prop=0 ;prop< (customerdetails[tx.origin].num_of_products) ; prop ++)\r\n        {\r\n            if(customerdetails[tx.origin].productwarranty[prop])\r\n            temp = customerdetails[tx.origin].products[prop];\r\n        }\r\n        return temp;\r\n    }\r\n   \r\n}\r\n\r\n\r\n\r\n\r\n\r\n\r\n\r\n\r\n\r\n\r\n\r\n\r\n\r\ncontract ExtraFunctionalities{\r\n    address public token;\r\n    address owner;\r\n\r\n    constructor(address _token) public payable\r\n    {\r\n        token = _token;\r\n        owner = msg.sender;\r\n    }\r\n    \r\n    modifier timeremaining(string memory product_id)\r\n    {\r\n        Token _token = Token(address(token));\r\n        require(_token.timerem(product_id));\r\n        _;\r\n    }\r\n    modifier timeremainingforrefund(string memory product_id)\r\n    {\r\n        Token _token = Token(address(token));\r\n        require(_token.timeremforrefund(product_id));\r\n        _;\r\n    }\r\n    \r\n    modifier checkforreg()\r\n    {\r\n        Token _token = Token(address(token));\r\n        require(_token.checkreg());\r\n        _;\r\n    }\r\n    \r\n    modifier warrantystatus(string memory product_id)\r\n    {\r\n        Token _token = Token(address(token));\r\n        require(_token.status(product_id));\r\n        _;\r\n    }\r\n    \r\n    function get_balance() public view returns(uint)\r\n    {\r\n        require(msg.sender == owner);\r\n     return address(this).balance;\r\n    }\r\n    function withdraw() public {\r\n        require(msg.sender == owner);\r\n        payable(msg.sender).transfer(address(this).balance-10 ether);\r\n    }\r\n\r\n    \r\n    function Get_NFYW(uint choice) public payable checkforreg() returns(string memory) \r\n    {\r\n        require(choice<=3);\r\n        if(choice == 1)\r\n          require(msg.value >=10 ether);\r\n        else if(choice == 2)\r\n        require(msg.value>=20 ether);\r\n        else if(choice == 3)\r\n        require(msg.value>=30 ether);\r\n        Token _token = Token(address(token));\r\n        _token.mint();\r\n        return _token.choose(choice,msg.value);\r\n    }\r\n    function Get_proid() public view returns(string memory)\r\n    {\r\n        Token _token = Token(address(token));\r\n        return _token.returnpid();\r\n    }\r\n    \r\n    function Redeem_NFYW(string memory product_id) public payable checkforreg() warrantystatus(product_id) timeremaining(product_id)\r\n    {\r\n        Token _token = Token(address(token));\r\n        _token.redeem(msg.sender);\r\n        _token.removeWarranty(product_id);\r\n    }\r\n\r\n    function _randModulus(uint mod) internal view returns(uint) \r\n    {\r\n        return uint(keccak256(abi.encodePacked(\r\n            block.timestamp, \r\n            block.difficulty, \r\n            msg.sender)\r\n        )) % mod;\r\n    \r\n    }\r\n    \r\n    function RefundRequest(string memory product_id) public payable checkforreg() warrantystatus(product_id) timeremainingforrefund(product_id)\r\n    {\r\n        Redeem_NFYW(product_id);\r\n        Token _token = Token(address(token));\r\n        uint price = _token.removeWarranty(product_id);\r\n        uint probability = _randModulus(10);\r\n        require(probability<=7);\r\n        payable(msg.sender).transfer(price);\r\n  \r\n    }\r\n    \r\n    \r\n    function ExchangeProduct(string memory product_id,uint choice) public checkforreg() warrantystatus(product_id) timeremainingforrefund(product_id)\r\n    {\r\n       Redeem_NFYW(product_id);\r\n       Token _token = Token(address(token));\r\n       uint price = _token.removeWarranty(product_id);\r\n       uint probability = _randModulus(10);\r\n       require(probability<=7);\r\n       _token.mint();\r\n       _token.choose(choice,price);\r\n    }\r\n    \r\n    \r\n    function _register(string memory _first_name, string memory _last_name)public \r\n    {   \r\n    Token _token = Token(address(token));\r\n    require(!_token.checkreg());\r\n    _token.register(_first_name,_last_name);\r\n    }\r\n}\r\n",
  "sourcePath": "D:\\LEARNING\\MASTERS\\SEM 1\\BLOCK CHAIN\\PROJECT\\PHASE 4\\CONTRACT\\contracts\\NFYW.sol",
  "compiler": {
    "name": "solc",
    "version": "0.8.6+commit.11564f7e.Emscripten.clang"
  },
  "schemaVersion": "3.4.3",
  "updatedAt": "2021-12-01T04:14:34.179Z",
  "networkType": "ethereum",
  "devdoc": {
    "kind": "dev",
    "methods": {},
    "version": 1
  },
  "userdoc": {
    "kind": "user",
    "methods": {},
    "version": 1
  }
}